{
  "contracts/WormholeBaseBridge.sol": {
    "WormholeBaseBridge": {
      "abi": [
        {
          "inputs": [
            {
              "internalType": "address",
              "name": "_wormhole",
              "type": "address"
            },
            {
              "internalType": "address",
              "name": "_tokenBridge",
              "type": "address"
            },
            {
              "internalType": "address",
              "name": "_circleIntegration",
              "type": "address"
            },
            {
              "internalType": "bytes32",
              "name": "_programAddress",
              "type": "bytes32"
            }
          ],
          "stateMutability": "nonpayable",
          "type": "constructor"
        },
        {
          "inputs": [
            {
              "internalType": "address",
              "name": "token",
              "type": "address"
            }
          ],
          "name": "SafeERC20FailedOperation",
          "type": "error"
        },
        {
          "anonymous": false,
          "inputs": [
            {
              "indexed": true,
              "internalType": "address",
              "name": "previousOwner",
              "type": "address"
            },
            {
              "indexed": true,
              "internalType": "address",
              "name": "newOwner",
              "type": "address"
            }
          ],
          "name": "OwnershipTransferred",
          "type": "event"
        },
        {
          "anonymous": false,
          "inputs": [
            {
              "indexed": true,
              "internalType": "address",
              "name": "token",
              "type": "address"
            },
            {
              "indexed": false,
              "internalType": "uint256",
              "name": "amount",
              "type": "uint256"
            }
          ],
          "name": "TransferToken",
          "type": "event"
        },
        {
          "inputs": [],
          "name": "CONSISTENCY_LEVEL",
          "outputs": [
            {
              "internalType": "uint8",
              "name": "",
              "type": "uint8"
            }
          ],
          "stateMutability": "view",
          "type": "function"
        },
        {
          "inputs": [],
          "name": "MESSAGE_TIME_OUT_SECONDS",
          "outputs": [
            {
              "internalType": "uint256",
              "name": "",
              "type": "uint256"
            }
          ],
          "stateMutability": "view",
          "type": "function"
        },
        {
          "inputs": [
            {
              "internalType": "bytes32",
              "name": "sourceAddress",
              "type": "bytes32"
            },
            {
              "internalType": "address",
              "name": "usdc",
              "type": "address"
            }
          ],
          "name": "addUsdcAddress",
          "outputs": [],
          "stateMutability": "nonpayable",
          "type": "function"
        },
        {
          "inputs": [],
          "name": "circleIntegration",
          "outputs": [
            {
              "internalType": "contract ICircleIntegration",
              "name": "",
              "type": "address"
            }
          ],
          "stateMutability": "view",
          "type": "function"
        },
        {
          "inputs": [
            {
              "internalType": "bytes",
              "name": "encodedMessage",
              "type": "bytes"
            }
          ],
          "name": "decodePayload",
          "outputs": [
            {
              "components": [
                {
                  "internalType": "uint8",
                  "name": "payloadID",
                  "type": "uint8"
                },
                {
                  "internalType": "bytes32",
                  "name": "recipient",
                  "type": "bytes32"
                }
              ],
              "internalType": "struct WormholeBaseBridge.TokenTransfer",
              "name": "parsedMessage",
              "type": "tuple"
            }
          ],
          "stateMutability": "pure",
          "type": "function"
        },
        {
          "inputs": [],
          "name": "getMessageFee",
          "outputs": [
            {
              "internalType": "uint256",
              "name": "",
              "type": "uint256"
            }
          ],
          "stateMutability": "view",
          "type": "function"
        },
        {
          "inputs": [
            {
              "internalType": "bytes32",
              "name": "tokenAddress",
              "type": "bytes32"
            },
            {
              "internalType": "uint16",
              "name": "sourceChain",
              "type": "uint16"
            }
          ],
          "name": "getSourceAddress",
          "outputs": [
            {
              "internalType": "address",
              "name": "",
              "type": "address"
            }
          ],
          "stateMutability": "view",
          "type": "function"
        },
        {
          "inputs": [],
          "name": "getWormholeChainId",
          "outputs": [
            {
              "internalType": "uint16",
              "name": "",
              "type": "uint16"
            }
          ],
          "stateMutability": "view",
          "type": "function"
        },
        {
          "inputs": [],
          "name": "policy",
          "outputs": [
            {
              "internalType": "address",
              "name": "",
              "type": "address"
            }
          ],
          "stateMutability": "view",
          "type": "function"
        },
        {
          "inputs": [],
          "name": "programAddress",
          "outputs": [
            {
              "internalType": "bytes32",
              "name": "",
              "type": "bytes32"
            }
          ],
          "stateMutability": "view",
          "type": "function"
        },
        {
          "inputs": [],
          "name": "pullPolicy",
          "outputs": [],
          "stateMutability": "nonpayable",
          "type": "function"
        },
        {
          "inputs": [
            {
              "internalType": "address",
              "name": "newPolicy_",
              "type": "address"
            }
          ],
          "name": "pushPolicy",
          "outputs": [],
          "stateMutability": "nonpayable",
          "type": "function"
        },
        {
          "inputs": [
            {
              "internalType": "bytes",
              "name": "_whMessage",
              "type": "bytes"
            }
          ],
          "name": "receiveMessage",
          "outputs": [],
          "stateMutability": "payable",
          "type": "function"
        },
        {
          "inputs": [
            {
              "internalType": "bytes",
              "name": "encodedTransferMessage",
              "type": "bytes"
            }
          ],
          "name": "redeemTransferWithPayload",
          "outputs": [],
          "stateMutability": "nonpayable",
          "type": "function"
        },
        {
          "inputs": [],
          "name": "renouncePolicy",
          "outputs": [],
          "stateMutability": "nonpayable",
          "type": "function"
        },
        {
          "inputs": [
            {
              "internalType": "address",
              "name": "_bettingToken",
              "type": "address"
            },
            {
              "internalType": "uint64",
              "name": "_amount",
              "type": "uint64"
            },
            {
              "internalType": "uint64",
              "name": "_marketId",
              "type": "uint64"
            },
            {
              "internalType": "uint64",
              "name": "_answerId",
              "type": "uint64"
            }
          ],
          "name": "sendMessage",
          "outputs": [
            {
              "internalType": "uint64",
              "name": "sequence",
              "type": "uint64"
            }
          ],
          "stateMutability": "payable",
          "type": "function"
        },
        {
          "inputs": [],
          "name": "tokenBridge",
          "outputs": [
            {
              "internalType": "contract ITokenBridge",
              "name": "",
              "type": "address"
            }
          ],
          "stateMutability": "view",
          "type": "function"
        },
        {
          "inputs": [
            {
              "internalType": "bytes32",
              "name": "_newAddress",
              "type": "bytes32"
            }
          ],
          "name": "updateReceiverAddress",
          "outputs": [],
          "stateMutability": "nonpayable",
          "type": "function"
        },
        {
          "inputs": [
            {
              "internalType": "uint16",
              "name": "_chainId",
              "type": "uint16"
            },
            {
              "internalType": "bytes32",
              "name": "_senderAddress",
              "type": "bytes32"
            }
          ],
          "name": "updateSenderAddress",
          "outputs": [],
          "stateMutability": "nonpayable",
          "type": "function"
        },
        {
          "inputs": [],
          "name": "wormhole",
          "outputs": [
            {
              "internalType": "contract IWormhole",
              "name": "",
              "type": "address"
            }
          ],
          "stateMutability": "view",
          "type": "function"
        }
      ],
      "evm": {
        "bytecode": {
          "linkReferences": {},
          "object": "60e0604052600180546001600160c01b0316905534801561001f57600080fd5b5060405161234b38038061234b83398101604081905261003e91610186565b600080546001600160a01b0319163390811782556040519091907f8be0079c531659141344cd1fd0a4f28419497f9722a3daafe3b4186f6b6457e0908290a36001600160a01b0384166100ac5760405162461bcd60e51b81526004016100a3906101d1565b60405180910390fd5b6001600160a01b0380851660805283166100d85760405162461bcd60e51b81526004016100a3906101d1565b6001600160a01b03831660a0528061011b5760405162461bcd60e51b81526004016100a3906020808252600490820152634233324160e01b604082015260600190565b60028190556001600160a01b0382166101465760405162461bcd60e51b81526004016100a3906101d1565b506001600160a01b031660c05250506001805463ffffffff60a01b191690556101ed565b80516001600160a01b038116811461018157600080fd5b919050565b6000806000806080858703121561019c57600080fd5b6101a58561016a565b93506101b36020860161016a565b92506101c16040860161016a565b6060959095015193969295505050565b6020808252600290820152615a4160f01b604082015260600190565b60805160a05160c0516120d46102776000396000818161038201528181610f2d0152610fbd015260008181610318015281816104680152818161052a0152610658015260008181610247015281816103e8015281816108950152818161091f01528181610a4a01528181610b7401528181610e2f01528181611041015261125b01526120d46000f3fe6080604052600436106100ef5760003560e01c80630505c8c9146100f45780630963d30e1461012b578063197c6e771461014d578063354ae59d1461018b5780634316dcd3146101ab5780634b926893146101ce5780634fd686c8146101f95780635beede081461022057806384acd1bb146102355780638781f34d14610269578063a15ad07714610289578063a4b23980146102a9578063b850509a146102be578063ba94e2f6146102e6578063c6328a4614610306578063d0d019b01461033a578063db04e81d14610350578063dd6522aa14610370578063e9fa3162146103a4578063f953cec7146103bb575b600080fd5b34801561010057600080fd5b506000546001600160a01b03165b6040516001600160a01b0390911681526020015b60405180910390f35b34801561013757600080fd5b5061014b610146366004611728565b6103ce565b005b34801561015957600080fd5b5061016d610168366004611728565b61076c565b60408051825160ff1681526020928301519281019290925201610122565b34801561019757600080fd5b5061014b6101a63660046117ba565b610850565b3480156101b757600080fd5b506101c0610891565b604051908152602001610122565b6101e16101dc366004611810565b61091a565b6040516001600160401b039091168152602001610122565b34801561020557600080fd5b5061020e60c881565b60405160ff9091168152602001610122565b34801561022c57600080fd5b5061014b610c4d565b34801561024157600080fd5b5061010e7f000000000000000000000000000000000000000000000000000000000000000081565b34801561027557600080fd5b5061014b61028436600461186c565b610cb3565b34801561029557600080fd5b5061014b6102a4366004611885565b610d18565b3480156102b557600080fd5b5061014b610dc9565b3480156102ca57600080fd5b506102d3610e2b565b60405161ffff9091168152602001610122565b3480156102f257600080fd5b5061014b6103013660046118a9565b610eaf565b34801561031257600080fd5b5061010e7f000000000000000000000000000000000000000000000000000000000000000081565b34801561034657600080fd5b506101c060025481565b34801561035c57600080fd5b5061010e61036b3660046118d9565b610f07565b34801561037c57600080fd5b5061010e7f000000000000000000000000000000000000000000000000000000000000000081565b3480156103b057600080fd5b506101c06202a30081565b61014b6103c93660046118fe565b61103a565b60405163a9e1189360e01b81526000906001600160a01b037f0000000000000000000000000000000000000000000000000000000000000000169063a9e118939061041d9085906004016119c0565b600060405180830381865afa15801561043a573d6000803e3d6000fd5b505050506040513d6000823e601f3d908101601f191682016040526104629190810190611c32565b905060007f00000000000000000000000000000000000000000000000000000000000000006001600160a01b031663ea63738d8360e001516040518263ffffffff1660e01b81526004016104b691906119c0565b600060405180830381865afa1580156104d3573d6000803e3d6000fd5b505050506040513d6000823e601f3d908101601f191682016040526104fb9190810190611c6e565b60608101516040808301519051630ff8f14360e11b815261ffff909216600483015260248201529091506000907f00000000000000000000000000000000000000000000000000000000000000006001600160a01b031690631ff1e28690604401602060405180830381865afa158015610579573d6000803e3d6000fd5b505050506040513d601f19601f8201168201806040525081019061059d9190611d39565b90506001600160a01b0381161580156105cf57506040808301516000908152600560205220546001600160a01b031615155b156105f157506040808201516000908152600560205220546001600160a01b03165b6001600160a01b0381166106415760405162461bcd60e51b81526020600482015260126024820152711d1bdad95b881b9bdd08185d1d195cdd195960721b60448201526064015b60405180910390fd5b60405163c3f511c160e01b81526001600160a01b037f0000000000000000000000000000000000000000000000000000000000000000169063c3f511c19061068d9087906004016119c0565b6000604051808303816000875af11580156106ac573d6000803e3d6000fd5b505050506040513d6000823e601f3d908101601f191682016040526106d49190810190611d56565b506020808301516080850151606086015161ffff16600090815260049093526040909220549091146107185760405162461bcd60e51b815260040161063890611d8a565b60006107278460e0015161076c565b60208101519091506001600160a01b038116330361074f5761074a848285611476565b610763565b6107636001600160a01b0385168285611476565b50505050505050565b6040805180820190915260008082526020820152600061078c83826114da565b60ff168083526001146107d55760405162461bcd60e51b81526020600482015260116024820152701a5b9d985b1a59081c185e5b1bd8591251607a1b6044820152606401610638565b6107e0600182611dd2565b90506107ec838261153a565b6020808401919091526107ff9082611dd2565b90508251811461084a5760405162461bcd60e51b81526020600482015260166024820152750d2dcecc2d8d2c840e0c2f2d8dec2c840d8cadccee8d60531b6044820152606401610638565b50919050565b6000546001600160a01b0316331461087a5760405162461bcd60e51b815260040161063890611de5565b61ffff909116600090815260046020526040902055565b60007f00000000000000000000000000000000000000000000000000000000000000006001600160a01b0316631a90a2196040518163ffffffff1660e01b8152600401602060405180830381865afa1580156108f1573d6000803e3d6000fd5b505050506040513d601f19601f820116820180604052508101906109159190611e1a565b905090565b6000807f00000000000000000000000000000000000000000000000000000000000000006001600160a01b0316631a90a2196040518163ffffffff1660e01b8152600401602060405180830381865afa15801561097b573d6000803e3d6000fd5b505050506040513d601f19601f8201168201806040525081019061099f9190611e1a565b9050803410156109e55760405162461bcd60e51b8152602060048201526011602482015270496e76616c6964206d73672076616c756560781b6044820152606401610638565b610a036001600160a01b03871633306001600160401b03891661159d565b3360009081526003602090815260408083206001600160a01b038a811685529083528184206001600160401b038a1690558151634d4502c960e11b815291518893889342937f00000000000000000000000000000000000000000000000000000000000000001692639a8a0592926004808401939192918290030181865afa158015610a93573d6000803e3d6000fd5b505050506040513d601f19601f82011682018060405250810190610ab79190611e33565b6040516001600160c01b031960c095861b8116602083015293851b8416602882015291841b831660308301526001600160f01b031960f09190911b1660388201526001600160601b031933606090811b8216603a8401528b901b16605a8201529188901b16607a82015260820160408051601f1981840301815282820182526001808452602084810183905282519351929550600093610b5b939091879101611e50565b60408051808303601f19018152919052600180549192507f00000000000000000000000000000000000000000000000000000000000000006001600160a01b03169163b19a437e918791600160a01b900463ffffffff16906014610bbe83611e9a565b91906101000a81548163ffffffff021916908363ffffffff1602179055508460c86040518563ffffffff1660e01b8152600401610bfd93929190611ebf565b60206040518083038185885af1158015610c1b573d6000803e3d6000fd5b50505050506040513d601f19601f82011682018060405250810190610c409190611ef1565b9998505050505050505050565b6001546001600160a01b03163314610c6457600080fd5b600154600080546040516001600160a01b03938416939091169160008051602061207f83398151915291a3600154600080546001600160a01b0319166001600160a01b03909216919091179055565b6000546001600160a01b03163314610cdd5760405162461bcd60e51b815260040161063890611de5565b80610d135760405162461bcd60e51b8152600401610638906020808252600490820152634233324160e01b604082015260600190565b600255565b6000546001600160a01b03163314610d425760405162461bcd60e51b815260040161063890611de5565b6001600160a01b038116610da75760405162461bcd60e51b815260206004820152602660248201527f4f776e61626c653a206e6577206f776e657220697320746865207a65726f206160448201526564647265737360d01b6064820152608401610638565b600180546001600160a01b0319166001600160a01b0392909216919091179055565b6000546001600160a01b03163314610df35760405162461bcd60e51b815260040161063890611de5565b600080546040516001600160a01b039091169060008051602061207f833981519152908390a3600080546001600160a01b0319169055565b60007f00000000000000000000000000000000000000000000000000000000000000006001600160a01b0316639a8a05926040518163ffffffff1660e01b8152600401602060405180830381865afa158015610e8b573d6000803e3d6000fd5b505050506040513d601f19601f820116820180604052508101906109159190611e33565b6000546001600160a01b03163314610ed95760405162461bcd60e51b815260040161063890611de5565b60009182526005602052604090912080546001600160a01b0319166001600160a01b03909216919091179055565b60405163134f89bd60e01b815261ffff8216600482015260009081906001600160a01b037f0000000000000000000000000000000000000000000000000000000000000000169063134f89bd90602401602060405180830381865afa158015610f74573d6000803e3d6000fd5b505050506040513d601f19601f82011682018060405250810190610f989190611f0e565b604051639e68b12960e01b815263ffffffff82166004820152602481018690529091507f00000000000000000000000000000000000000000000000000000000000000006001600160a01b031690639e68b12990604401602060405180830381865afa15801561100c573d6000803e3d6000fd5b505050506040513d601f19601f820116820180604052508101906110309190611e1a565b9150505b92915050565b60008060007f00000000000000000000000000000000000000000000000000000000000000006001600160a01b031663c0fd8bde86866040518363ffffffff1660e01b815260040161108d929190611f29565b600060405180830381865afa1580156110aa573d6000803e3d6000fd5b505050506040513d6000823e601f3d908101601f191682016040526110d29190810190611f58565b9250925092508181906110f85760405162461bcd60e51b815260040161063891906119c0565b506080830151606084015161ffff16600090815260046020526040902054146111335760405162461bcd60e51b815260040161063890611d8a565b60015460a08401516001600160401b03600160c01b9092048216911610156111975760405162461bcd60e51b815260206004820152601760248201527624b73b30b634b21029b2b8bab2b731b290373ab6b132b960491b6044820152606401610638565b60a08301516111a7906001611feb565b600160186101000a8154816001600160401b0302191690836001600160401b03160217905550426202a300846020015163ffffffff166111e79190611dd2565b101561122f5760405162461bcd60e51b815260206004820152601760248201527613595cdcd859d9481b9bc81b1bdb99d95c881d985b1a59604a1b6044820152606401610638565b60008060008060008760e0015180602001905181019061124f919061200a565b945094509450945094507f00000000000000000000000000000000000000000000000000000000000000006001600160a01b0316639a8a05926040518163ffffffff1660e01b8152600401602060405180830381865afa1580156112b7573d6000803e3d6000fd5b505050506040513d601f19601f820116820180604052508101906112db9190611e33565b61ffff168261ffff16146113225760405162461bcd60e51b815260206004820152600e60248201526d15dc9bdb99c818da185a5b88125960921b6044820152606401610638565b6001600160601b03193060601b16811461136e5760405162461bcd60e51b815260206004820152600d60248201526c57726f6e67206164647265737360981b6044820152606401610638565b6001600160a01b03808616600090815260036020908152604080832093881683529290522054838110156113d55760405162461bcd60e51b815260206004820152600e60248201526d125b9d985b1a5908185b5bdd5b9d60921b6044820152606401610638565b6001600160a01b0380871660009081526003602090815260408083209389168352929052908120805486929061140c90849061206b565b9091555061142690506001600160a01b0386168786611476565b846001600160a01b03167f9dd3045b6df532ed81beb2a333cec6249dafd3c2fc54c80c50155cb0e1a0ba1e8560405161146191815260200190565b60405180910390a25050505050505050505050565b6040516001600160a01b038381166024830152604482018390526114d591859182169063a9059cbb906064015b604051602081830303815290604052915060e01b6020820180516001600160e01b0383818316178352505050506115dc565b505050565b6000818351116115225760405162461bcd60e51b8152602060048201526013602482015272746f55696e74385f6f75744f66426f756e647360681b6044820152606401610638565b600061152f600184611dd2565b909301519392505050565b600080611548602084611dd2565b905080845110156115935760405162461bcd60e51b8152602060048201526015602482015274746f427974657333325f6f75744f66426f756e647360581b6044820152606401610638565b9092015192915050565b6040516001600160a01b0384811660248301528381166044830152606482018390526115d69186918216906323b872dd906084016114a3565b50505050565b600080602060008451602086016000885af1806115ff576040513d6000823e3d81fd5b50506000513d91508115611617578060011415611624565b6001600160a01b0384163b155b156115d657604051635274afe760e01b81526001600160a01b0385166004820152602401610638565b634e487b7160e01b600052604160045260246000fd5b604051608081016001600160401b03811182821017156116855761168561164d565b60405290565b60405161016081016001600160401b03811182821017156116855761168561164d565b60405161010081016001600160401b03811182821017156116855761168561164d565b604051601f8201601f191681016001600160401b03811182821017156116f9576116f961164d565b604052919050565b60006001600160401b0382111561171a5761171a61164d565b50601f01601f191660200190565b60006020828403121561173a57600080fd5b81356001600160401b0381111561175057600080fd5b8201601f8101841361176157600080fd5b803561177461176f82611701565b6116d1565b81815285602083850101111561178957600080fd5b81602084016020830137600091810160200191909152949350505050565b61ffff811681146117b757600080fd5b50565b600080604083850312156117cd57600080fd5b82356117d8816117a7565b946020939093013593505050565b6001600160a01b03811681146117b757600080fd5b6001600160401b03811681146117b757600080fd5b6000806000806080858703121561182657600080fd5b8435611831816117e6565b93506020850135611841816117fb565b92506040850135611851816117fb565b91506060850135611861816117fb565b939692955090935050565b60006020828403121561187e57600080fd5b5035919050565b60006020828403121561189757600080fd5b81356118a2816117e6565b9392505050565b600080604083850312156118bc57600080fd5b8235915060208301356118ce816117e6565b809150509250929050565b600080604083850312156118ec57600080fd5b8235915060208301356118ce816117a7565b6000806020838503121561191157600080fd5b82356001600160401b0381111561192757600080fd5b8301601f8101851361193857600080fd5b80356001600160401b0381111561194e57600080fd5b85602082840101111561196057600080fd5b6020919091019590945092505050565b60005b8381101561198b578181015183820152602001611973565b50506000910152565b600081518084526119ac816020860160208601611970565b601f01601f19169290920160200192915050565b6020815260006118a26020830184611994565b805160ff811681146119e457600080fd5b919050565b805163ffffffff811681146119e457600080fd5b80516119e4816117a7565b80516119e4816117fb565b6000611a2161176f84611701565b9050828152838383011115611a3557600080fd5b6118a2836020830184611970565b600082601f830112611a5457600080fd5b6118a283835160208501611a13565b600082601f830112611a7457600080fd5b81516001600160401b03811115611a8d57611a8d61164d565b611a9c60208260051b016116d1565b8082825260208201915060208360071b860101925085831115611abe57600080fd5b602085015b83811015611b235760808188031215611adb57600080fd5b611ae3611663565b8151815260208083015190820152611afd604083016119d3565b6040820152611b0e606083016119d3565b60608201528352602090920191608001611ac3565b5095945050505050565b60006101608284031215611b4057600080fd5b611b4861168b565b9050611b53826119d3565b8152611b61602083016119e9565b6020820152611b72604083016119e9565b6040820152611b83606083016119fd565b606082015260808281015190820152611b9e60a08301611a08565b60a0820152611baf60c083016119d3565b60c082015260e08201516001600160401b03811115611bcd57600080fd5b611bd984828501611a43565b60e083015250611bec61010083016119e9565b6101008201526101208201516001600160401b03811115611c0c57600080fd5b611c1884828501611a63565b610120830152506101409182015191810191909152919050565b600060208284031215611c4457600080fd5b81516001600160401b03811115611c5a57600080fd5b611c6684828501611b2d565b949350505050565b600060208284031215611c8057600080fd5b81516001600160401b03811115611c9657600080fd5b82016101008185031215611ca957600080fd5b611cb16116ae565b611cba826119d3565b81526020828101519082015260408083015190820152611cdc606083016119fd565b606082015260808281015190820152611cf760a083016119fd565b60a082015260c0828101519082015260e08201516001600160401b03811115611d1f57600080fd5b611d2b86828501611a43565b60e083015250949350505050565b600060208284031215611d4b57600080fd5b81516118a2816117e6565b600060208284031215611d6857600080fd5b81516001600160401b03811115611d7e57600080fd5b611c6684828501611a43565b602080825260189082015277496e76616c696420456d697474657220416464726573732160401b604082015260600190565b634e487b7160e01b600052601160045260246000fd5b8082018082111561103457611034611dbc565b6020808252818101527f4f776e61626c653a2063616c6c6572206973206e6f7420746865206f776e6572604082015260600190565b600060208284031215611e2c57600080fd5b5051919050565b600060208284031215611e4557600080fd5b81516118a2816117a7565b60f884901b6001600160f81b031916815260f083901b6001600160f01b03191660018201528151600090611e8b816003850160208701611970565b91909101600301949350505050565b600063ffffffff821663ffffffff8103611eb657611eb6611dbc565b60010192915050565b63ffffffff84168152606060208201526000611ede6060830185611994565b905060ff83166040830152949350505050565b600060208284031215611f0357600080fd5b81516118a2816117fb565b600060208284031215611f2057600080fd5b6118a2826119e9565b60208152816020820152818360408301376000818301604090810191909152601f909201601f19160101919050565b600080600060608486031215611f6d57600080fd5b83516001600160401b03811115611f8357600080fd5b611f8f86828701611b2d565b93505060208401518015158114611fa557600080fd5b60408501519092506001600160401b03811115611fc157600080fd5b8401601f81018613611fd257600080fd5b611fe186825160208401611a13565b9150509250925092565b6001600160401b03818116838216019081111561103457611034611dbc565b600080600080600060a0868803121561202257600080fd5b855161202d816117e6565b602087015190955061203e816117e6565b604087015160608801519195509350612056816117a7565b60809690960151949793965091949392915050565b8181038181111561103457611034611dbc56fe8be0079c531659141344cd1fd0a4f28419497f9722a3daafe3b4186f6b6457e0a2646970667358221220428664faaefec800f32fd1d98911a55c2b0563cd2f5ce558d88caa5c1268d72464736f6c634300081b0033",
          "opcodes": "PUSH1 0xE0 PUSH1 0x40 MSTORE PUSH1 0x1 DUP1 SLOAD PUSH1 0x1 PUSH1 0x1 PUSH1 0xC0 SHL SUB AND SWAP1 SSTORE CALLVALUE DUP1 ISZERO PUSH2 0x1F JUMPI PUSH1 0x0 DUP1 REVERT JUMPDEST POP PUSH1 0x40 MLOAD PUSH2 0x234B CODESIZE SUB DUP1 PUSH2 0x234B DUP4 CODECOPY DUP2 ADD PUSH1 0x40 DUP2 SWAP1 MSTORE PUSH2 0x3E SWAP2 PUSH2 0x186 JUMP JUMPDEST PUSH1 0x0 DUP1 SLOAD PUSH1 0x1 PUSH1 0x1 PUSH1 0xA0 SHL SUB NOT AND CALLER SWAP1 DUP2 OR DUP3 SSTORE PUSH1 0x40 MLOAD SWAP1 SWAP2 SWAP1 PUSH32 0x8BE0079C531659141344CD1FD0A4F28419497F9722A3DAAFE3B4186F6B6457E0 SWAP1 DUP3 SWAP1 LOG3 PUSH1 0x1 PUSH1 0x1 PUSH1 0xA0 SHL SUB DUP5 AND PUSH2 0xAC JUMPI PUSH1 0x40 MLOAD PUSH3 0x461BCD PUSH1 0xE5 SHL DUP2 MSTORE PUSH1 0x4 ADD PUSH2 0xA3 SWAP1 PUSH2 0x1D1 JUMP JUMPDEST PUSH1 0x40 MLOAD DUP1 SWAP2 SUB SWAP1 REVERT JUMPDEST PUSH1 0x1 PUSH1 0x1 PUSH1 0xA0 SHL SUB DUP1 DUP6 AND PUSH1 0x80 MSTORE DUP4 AND PUSH2 0xD8 JUMPI PUSH1 0x40 MLOAD PUSH3 0x461BCD PUSH1 0xE5 SHL DUP2 MSTORE PUSH1 0x4 ADD PUSH2 0xA3 SWAP1 PUSH2 0x1D1 JUMP JUMPDEST PUSH1 0x1 PUSH1 0x1 PUSH1 0xA0 SHL SUB DUP4 AND PUSH1 0xA0 MSTORE DUP1 PUSH2 0x11B JUMPI PUSH1 0x40 MLOAD PUSH3 0x461BCD PUSH1 0xE5 SHL DUP2 MSTORE PUSH1 0x4 ADD PUSH2 0xA3 SWAP1 PUSH1 0x20 DUP1 DUP3 MSTORE PUSH1 0x4 SWAP1 DUP3 ADD MSTORE PUSH4 0x42333241 PUSH1 0xE0 SHL PUSH1 0x40 DUP3 ADD MSTORE PUSH1 0x60 ADD SWAP1 JUMP JUMPDEST PUSH1 0x2 DUP2 SWAP1 SSTORE PUSH1 0x1 PUSH1 0x1 PUSH1 0xA0 SHL SUB DUP3 AND PUSH2 0x146 JUMPI PUSH1 0x40 MLOAD PUSH3 0x461BCD PUSH1 0xE5 SHL DUP2 MSTORE PUSH1 0x4 ADD PUSH2 0xA3 SWAP1 PUSH2 0x1D1 JUMP JUMPDEST POP PUSH1 0x1 PUSH1 0x1 PUSH1 0xA0 SHL SUB AND PUSH1 0xC0 MSTORE POP POP PUSH1 0x1 DUP1 SLOAD PUSH4 0xFFFFFFFF PUSH1 0xA0 SHL NOT AND SWAP1 SSTORE PUSH2 0x1ED JUMP JUMPDEST DUP1 MLOAD PUSH1 0x1 PUSH1 0x1 PUSH1 0xA0 SHL SUB DUP2 AND DUP2 EQ PUSH2 0x181 JUMPI PUSH1 0x0 DUP1 REVERT JUMPDEST SWAP2 SWAP1 POP JUMP JUMPDEST PUSH1 0x0 DUP1 PUSH1 0x0 DUP1 PUSH1 0x80 DUP6 DUP8 SUB SLT ISZERO PUSH2 0x19C JUMPI PUSH1 0x0 DUP1 REVERT JUMPDEST PUSH2 0x1A5 DUP6 PUSH2 0x16A JUMP JUMPDEST SWAP4 POP PUSH2 0x1B3 PUSH1 0x20 DUP7 ADD PUSH2 0x16A JUMP JUMPDEST SWAP3 POP PUSH2 0x1C1 PUSH1 0x40 DUP7 ADD PUSH2 0x16A JUMP JUMPDEST PUSH1 0x60 SWAP6 SWAP1 SWAP6 ADD MLOAD SWAP4 SWAP7 SWAP3 SWAP6 POP POP POP JUMP JUMPDEST PUSH1 0x20 DUP1 DUP3 MSTORE PUSH1 0x2 SWAP1 DUP3 ADD MSTORE PUSH2 0x5A41 PUSH1 0xF0 SHL PUSH1 0x40 DUP3 ADD MSTORE PUSH1 0x60 ADD SWAP1 JUMP JUMPDEST PUSH1 0x80 MLOAD PUSH1 0xA0 MLOAD PUSH1 0xC0 MLOAD PUSH2 0x20D4 PUSH2 0x277 PUSH1 0x0 CODECOPY PUSH1 0x0 DUP2 DUP2 PUSH2 0x382 ADD MSTORE DUP2 DUP2 PUSH2 0xF2D ADD MSTORE PUSH2 0xFBD ADD MSTORE PUSH1 0x0 DUP2 DUP2 PUSH2 0x318 ADD MSTORE DUP2 DUP2 PUSH2 0x468 ADD MSTORE DUP2 DUP2 PUSH2 0x52A ADD MSTORE PUSH2 0x658 ADD MSTORE PUSH1 0x0 DUP2 DUP2 PUSH2 0x247 ADD MSTORE DUP2 DUP2 PUSH2 0x3E8 ADD MSTORE DUP2 DUP2 PUSH2 0x895 ADD MSTORE DUP2 DUP2 PUSH2 0x91F ADD MSTORE DUP2 DUP2 PUSH2 0xA4A ADD MSTORE DUP2 DUP2 PUSH2 0xB74 ADD MSTORE DUP2 DUP2 PUSH2 0xE2F ADD MSTORE DUP2 DUP2 PUSH2 0x1041 ADD MSTORE PUSH2 0x125B ADD MSTORE PUSH2 0x20D4 PUSH1 0x0 RETURN INVALID PUSH1 0x80 PUSH1 0x40 MSTORE PUSH1 0x4 CALLDATASIZE LT PUSH2 0xEF JUMPI PUSH1 0x0 CALLDATALOAD PUSH1 0xE0 SHR DUP1 PUSH4 0x505C8C9 EQ PUSH2 0xF4 JUMPI DUP1 PUSH4 0x963D30E EQ PUSH2 0x12B JUMPI DUP1 PUSH4 0x197C6E77 EQ PUSH2 0x14D JUMPI DUP1 PUSH4 0x354AE59D EQ PUSH2 0x18B JUMPI DUP1 PUSH4 0x4316DCD3 EQ PUSH2 0x1AB JUMPI DUP1 PUSH4 0x4B926893 EQ PUSH2 0x1CE JUMPI DUP1 PUSH4 0x4FD686C8 EQ PUSH2 0x1F9 JUMPI DUP1 PUSH4 0x5BEEDE08 EQ PUSH2 0x220 JUMPI DUP1 PUSH4 0x84ACD1BB EQ PUSH2 0x235 JUMPI DUP1 PUSH4 0x8781F34D EQ PUSH2 0x269 JUMPI DUP1 PUSH4 0xA15AD077 EQ PUSH2 0x289 JUMPI DUP1 PUSH4 0xA4B23980 EQ PUSH2 0x2A9 JUMPI DUP1 PUSH4 0xB850509A EQ PUSH2 0x2BE JUMPI DUP1 PUSH4 0xBA94E2F6 EQ PUSH2 0x2E6 JUMPI DUP1 PUSH4 0xC6328A46 EQ PUSH2 0x306 JUMPI DUP1 PUSH4 0xD0D019B0 EQ PUSH2 0x33A JUMPI DUP1 PUSH4 0xDB04E81D EQ PUSH2 0x350 JUMPI DUP1 PUSH4 0xDD6522AA EQ PUSH2 0x370 JUMPI DUP1 PUSH4 0xE9FA3162 EQ PUSH2 0x3A4 JUMPI DUP1 PUSH4 0xF953CEC7 EQ PUSH2 0x3BB JUMPI JUMPDEST PUSH1 0x0 DUP1 REVERT JUMPDEST CALLVALUE DUP1 ISZERO PUSH2 0x100 JUMPI PUSH1 0x0 DUP1 REVERT JUMPDEST POP PUSH1 0x0 SLOAD PUSH1 0x1 PUSH1 0x1 PUSH1 0xA0 SHL SUB AND JUMPDEST PUSH1 0x40 MLOAD PUSH1 0x1 PUSH1 0x1 PUSH1 0xA0 SHL SUB SWAP1 SWAP2 AND DUP2 MSTORE PUSH1 0x20 ADD JUMPDEST PUSH1 0x40 MLOAD DUP1 SWAP2 SUB SWAP1 RETURN JUMPDEST CALLVALUE DUP1 ISZERO PUSH2 0x137 JUMPI PUSH1 0x0 DUP1 REVERT JUMPDEST POP PUSH2 0x14B PUSH2 0x146 CALLDATASIZE PUSH1 0x4 PUSH2 0x1728 JUMP JUMPDEST PUSH2 0x3CE JUMP JUMPDEST STOP JUMPDEST CALLVALUE DUP1 ISZERO PUSH2 0x159 JUMPI PUSH1 0x0 DUP1 REVERT JUMPDEST POP PUSH2 0x16D PUSH2 0x168 CALLDATASIZE PUSH1 0x4 PUSH2 0x1728 JUMP JUMPDEST PUSH2 0x76C JUMP JUMPDEST PUSH1 0x40 DUP1 MLOAD DUP3 MLOAD PUSH1 0xFF AND DUP2 MSTORE PUSH1 0x20 SWAP3 DUP4 ADD MLOAD SWAP3 DUP2 ADD SWAP3 SWAP1 SWAP3 MSTORE ADD PUSH2 0x122 JUMP JUMPDEST CALLVALUE DUP1 ISZERO PUSH2 0x197 JUMPI PUSH1 0x0 DUP1 REVERT JUMPDEST POP PUSH2 0x14B PUSH2 0x1A6 CALLDATASIZE PUSH1 0x4 PUSH2 0x17BA JUMP JUMPDEST PUSH2 0x850 JUMP JUMPDEST CALLVALUE DUP1 ISZERO PUSH2 0x1B7 JUMPI PUSH1 0x0 DUP1 REVERT JUMPDEST POP PUSH2 0x1C0 PUSH2 0x891 JUMP JUMPDEST PUSH1 0x40 MLOAD SWAP1 DUP2 MSTORE PUSH1 0x20 ADD PUSH2 0x122 JUMP JUMPDEST PUSH2 0x1E1 PUSH2 0x1DC CALLDATASIZE PUSH1 0x4 PUSH2 0x1810 JUMP JUMPDEST PUSH2 0x91A JUMP JUMPDEST PUSH1 0x40 MLOAD PUSH1 0x1 PUSH1 0x1 PUSH1 0x40 SHL SUB SWAP1 SWAP2 AND DUP2 MSTORE PUSH1 0x20 ADD PUSH2 0x122 JUMP JUMPDEST CALLVALUE DUP1 ISZERO PUSH2 0x205 JUMPI PUSH1 0x0 DUP1 REVERT JUMPDEST POP PUSH2 0x20E PUSH1 0xC8 DUP2 JUMP JUMPDEST PUSH1 0x40 MLOAD PUSH1 0xFF SWAP1 SWAP2 AND DUP2 MSTORE PUSH1 0x20 ADD PUSH2 0x122 JUMP JUMPDEST CALLVALUE DUP1 ISZERO PUSH2 0x22C JUMPI PUSH1 0x0 DUP1 REVERT JUMPDEST POP PUSH2 0x14B PUSH2 0xC4D JUMP JUMPDEST CALLVALUE DUP1 ISZERO PUSH2 0x241 JUMPI PUSH1 0x0 DUP1 REVERT JUMPDEST POP PUSH2 0x10E PUSH32 0x0 DUP2 JUMP JUMPDEST CALLVALUE DUP1 ISZERO PUSH2 0x275 JUMPI PUSH1 0x0 DUP1 REVERT JUMPDEST POP PUSH2 0x14B PUSH2 0x284 CALLDATASIZE PUSH1 0x4 PUSH2 0x186C JUMP JUMPDEST PUSH2 0xCB3 JUMP JUMPDEST CALLVALUE DUP1 ISZERO PUSH2 0x295 JUMPI PUSH1 0x0 DUP1 REVERT JUMPDEST POP PUSH2 0x14B PUSH2 0x2A4 CALLDATASIZE PUSH1 0x4 PUSH2 0x1885 JUMP JUMPDEST PUSH2 0xD18 JUMP JUMPDEST CALLVALUE DUP1 ISZERO PUSH2 0x2B5 JUMPI PUSH1 0x0 DUP1 REVERT JUMPDEST POP PUSH2 0x14B PUSH2 0xDC9 JUMP JUMPDEST CALLVALUE DUP1 ISZERO PUSH2 0x2CA JUMPI PUSH1 0x0 DUP1 REVERT JUMPDEST POP PUSH2 0x2D3 PUSH2 0xE2B JUMP JUMPDEST PUSH1 0x40 MLOAD PUSH2 0xFFFF SWAP1 SWAP2 AND DUP2 MSTORE PUSH1 0x20 ADD PUSH2 0x122 JUMP JUMPDEST CALLVALUE DUP1 ISZERO PUSH2 0x2F2 JUMPI PUSH1 0x0 DUP1 REVERT JUMPDEST POP PUSH2 0x14B PUSH2 0x301 CALLDATASIZE PUSH1 0x4 PUSH2 0x18A9 JUMP JUMPDEST PUSH2 0xEAF JUMP JUMPDEST CALLVALUE DUP1 ISZERO PUSH2 0x312 JUMPI PUSH1 0x0 DUP1 REVERT JUMPDEST POP PUSH2 0x10E PUSH32 0x0 DUP2 JUMP JUMPDEST CALLVALUE DUP1 ISZERO PUSH2 0x346 JUMPI PUSH1 0x0 DUP1 REVERT JUMPDEST POP PUSH2 0x1C0 PUSH1 0x2 SLOAD DUP2 JUMP JUMPDEST CALLVALUE DUP1 ISZERO PUSH2 0x35C JUMPI PUSH1 0x0 DUP1 REVERT JUMPDEST POP PUSH2 0x10E PUSH2 0x36B CALLDATASIZE PUSH1 0x4 PUSH2 0x18D9 JUMP JUMPDEST PUSH2 0xF07 JUMP JUMPDEST CALLVALUE DUP1 ISZERO PUSH2 0x37C JUMPI PUSH1 0x0 DUP1 REVERT JUMPDEST POP PUSH2 0x10E PUSH32 0x0 DUP2 JUMP JUMPDEST CALLVALUE DUP1 ISZERO PUSH2 0x3B0 JUMPI PUSH1 0x0 DUP1 REVERT JUMPDEST POP PUSH2 0x1C0 PUSH3 0x2A300 DUP2 JUMP JUMPDEST PUSH2 0x14B PUSH2 0x3C9 CALLDATASIZE PUSH1 0x4 PUSH2 0x18FE JUMP JUMPDEST PUSH2 0x103A JUMP JUMPDEST PUSH1 0x40 MLOAD PUSH4 0xA9E11893 PUSH1 0xE0 SHL DUP2 MSTORE PUSH1 0x0 SWAP1 PUSH1 0x1 PUSH1 0x1 PUSH1 0xA0 SHL SUB PUSH32 0x0 AND SWAP1 PUSH4 0xA9E11893 SWAP1 PUSH2 0x41D SWAP1 DUP6 SWAP1 PUSH1 0x4 ADD PUSH2 0x19C0 JUMP JUMPDEST PUSH1 0x0 PUSH1 0x40 MLOAD DUP1 DUP4 SUB DUP2 DUP7 GAS STATICCALL ISZERO DUP1 ISZERO PUSH2 0x43A JUMPI RETURNDATASIZE PUSH1 0x0 DUP1 RETURNDATACOPY RETURNDATASIZE PUSH1 0x0 REVERT JUMPDEST POP POP POP POP PUSH1 0x40 MLOAD RETURNDATASIZE PUSH1 0x0 DUP3 RETURNDATACOPY PUSH1 0x1F RETURNDATASIZE SWAP1 DUP2 ADD PUSH1 0x1F NOT AND DUP3 ADD PUSH1 0x40 MSTORE PUSH2 0x462 SWAP2 SWAP1 DUP2 ADD SWAP1 PUSH2 0x1C32 JUMP JUMPDEST SWAP1 POP PUSH1 0x0 PUSH32 0x0 PUSH1 0x1 PUSH1 0x1 PUSH1 0xA0 SHL SUB AND PUSH4 0xEA63738D DUP4 PUSH1 0xE0 ADD MLOAD PUSH1 0x40 MLOAD DUP3 PUSH4 0xFFFFFFFF AND PUSH1 0xE0 SHL DUP2 MSTORE PUSH1 0x4 ADD PUSH2 0x4B6 SWAP2 SWAP1 PUSH2 0x19C0 JUMP JUMPDEST PUSH1 0x0 PUSH1 0x40 MLOAD DUP1 DUP4 SUB DUP2 DUP7 GAS STATICCALL ISZERO DUP1 ISZERO PUSH2 0x4D3 JUMPI RETURNDATASIZE PUSH1 0x0 DUP1 RETURNDATACOPY RETURNDATASIZE PUSH1 0x0 REVERT JUMPDEST POP POP POP POP PUSH1 0x40 MLOAD RETURNDATASIZE PUSH1 0x0 DUP3 RETURNDATACOPY PUSH1 0x1F RETURNDATASIZE SWAP1 DUP2 ADD PUSH1 0x1F NOT AND DUP3 ADD PUSH1 0x40 MSTORE PUSH2 0x4FB SWAP2 SWAP1 DUP2 ADD SWAP1 PUSH2 0x1C6E JUMP JUMPDEST PUSH1 0x60 DUP2 ADD MLOAD PUSH1 0x40 DUP1 DUP4 ADD MLOAD SWAP1 MLOAD PUSH4 0xFF8F143 PUSH1 0xE1 SHL DUP2 MSTORE PUSH2 0xFFFF SWAP1 SWAP3 AND PUSH1 0x4 DUP4 ADD MSTORE PUSH1 0x24 DUP3 ADD MSTORE SWAP1 SWAP2 POP PUSH1 0x0 SWAP1 PUSH32 0x0 PUSH1 0x1 PUSH1 0x1 PUSH1 0xA0 SHL SUB AND SWAP1 PUSH4 0x1FF1E286 SWAP1 PUSH1 0x44 ADD PUSH1 0x20 PUSH1 0x40 MLOAD DUP1 DUP4 SUB DUP2 DUP7 GAS STATICCALL ISZERO DUP1 ISZERO PUSH2 0x579 JUMPI RETURNDATASIZE PUSH1 0x0 DUP1 RETURNDATACOPY RETURNDATASIZE PUSH1 0x0 REVERT JUMPDEST POP POP POP POP PUSH1 0x40 MLOAD RETURNDATASIZE PUSH1 0x1F NOT PUSH1 0x1F DUP3 ADD AND DUP3 ADD DUP1 PUSH1 0x40 MSTORE POP DUP2 ADD SWAP1 PUSH2 0x59D SWAP2 SWAP1 PUSH2 0x1D39 JUMP JUMPDEST SWAP1 POP PUSH1 0x1 PUSH1 0x1 PUSH1 0xA0 SHL SUB DUP2 AND ISZERO DUP1 ISZERO PUSH2 0x5CF JUMPI POP PUSH1 0x40 DUP1 DUP4 ADD MLOAD PUSH1 0x0 SWAP1 DUP2 MSTORE PUSH1 0x5 PUSH1 0x20 MSTORE KECCAK256 SLOAD PUSH1 0x1 PUSH1 0x1 PUSH1 0xA0 SHL SUB AND ISZERO ISZERO JUMPDEST ISZERO PUSH2 0x5F1 JUMPI POP PUSH1 0x40 DUP1 DUP3 ADD MLOAD PUSH1 0x0 SWAP1 DUP2 MSTORE PUSH1 0x5 PUSH1 0x20 MSTORE KECCAK256 SLOAD PUSH1 0x1 PUSH1 0x1 PUSH1 0xA0 SHL SUB AND JUMPDEST PUSH1 0x1 PUSH1 0x1 PUSH1 0xA0 SHL SUB DUP2 AND PUSH2 0x641 JUMPI PUSH1 0x40 MLOAD PUSH3 0x461BCD PUSH1 0xE5 SHL DUP2 MSTORE PUSH1 0x20 PUSH1 0x4 DUP3 ADD MSTORE PUSH1 0x12 PUSH1 0x24 DUP3 ADD MSTORE PUSH18 0x1D1BDAD95B881B9BDD08185D1D195CDD1959 PUSH1 0x72 SHL PUSH1 0x44 DUP3 ADD MSTORE PUSH1 0x64 ADD JUMPDEST PUSH1 0x40 MLOAD DUP1 SWAP2 SUB SWAP1 REVERT JUMPDEST PUSH1 0x40 MLOAD PUSH4 0xC3F511C1 PUSH1 0xE0 SHL DUP2 MSTORE PUSH1 0x1 PUSH1 0x1 PUSH1 0xA0 SHL SUB PUSH32 0x0 AND SWAP1 PUSH4 0xC3F511C1 SWAP1 PUSH2 0x68D SWAP1 DUP8 SWAP1 PUSH1 0x4 ADD PUSH2 0x19C0 JUMP JUMPDEST PUSH1 0x0 PUSH1 0x40 MLOAD DUP1 DUP4 SUB DUP2 PUSH1 0x0 DUP8 GAS CALL ISZERO DUP1 ISZERO PUSH2 0x6AC JUMPI RETURNDATASIZE PUSH1 0x0 DUP1 RETURNDATACOPY RETURNDATASIZE PUSH1 0x0 REVERT JUMPDEST POP POP POP POP PUSH1 0x40 MLOAD RETURNDATASIZE PUSH1 0x0 DUP3 RETURNDATACOPY PUSH1 0x1F RETURNDATASIZE SWAP1 DUP2 ADD PUSH1 0x1F NOT AND DUP3 ADD PUSH1 0x40 MSTORE PUSH2 0x6D4 SWAP2 SWAP1 DUP2 ADD SWAP1 PUSH2 0x1D56 JUMP JUMPDEST POP PUSH1 0x20 DUP1 DUP4 ADD MLOAD PUSH1 0x80 DUP6 ADD MLOAD PUSH1 0x60 DUP7 ADD MLOAD PUSH2 0xFFFF AND PUSH1 0x0 SWAP1 DUP2 MSTORE PUSH1 0x4 SWAP1 SWAP4 MSTORE PUSH1 0x40 SWAP1 SWAP3 KECCAK256 SLOAD SWAP1 SWAP2 EQ PUSH2 0x718 JUMPI PUSH1 0x40 MLOAD PUSH3 0x461BCD PUSH1 0xE5 SHL DUP2 MSTORE PUSH1 0x4 ADD PUSH2 0x638 SWAP1 PUSH2 0x1D8A JUMP JUMPDEST PUSH1 0x0 PUSH2 0x727 DUP5 PUSH1 0xE0 ADD MLOAD PUSH2 0x76C JUMP JUMPDEST PUSH1 0x20 DUP2 ADD MLOAD SWAP1 SWAP2 POP PUSH1 0x1 PUSH1 0x1 PUSH1 0xA0 SHL SUB DUP2 AND CALLER SUB PUSH2 0x74F JUMPI PUSH2 0x74A DUP5 DUP3 DUP6 PUSH2 0x1476 JUMP JUMPDEST PUSH2 0x763 JUMP JUMPDEST PUSH2 0x763 PUSH1 0x1 PUSH1 0x1 PUSH1 0xA0 SHL SUB DUP6 AND DUP3 DUP6 PUSH2 0x1476 JUMP JUMPDEST POP POP POP POP POP POP POP JUMP JUMPDEST PUSH1 0x40 DUP1 MLOAD DUP1 DUP3 ADD SWAP1 SWAP2 MSTORE PUSH1 0x0 DUP1 DUP3 MSTORE PUSH1 0x20 DUP3 ADD MSTORE PUSH1 0x0 PUSH2 0x78C DUP4 DUP3 PUSH2 0x14DA JUMP JUMPDEST PUSH1 0xFF AND DUP1 DUP4 MSTORE PUSH1 0x1 EQ PUSH2 0x7D5 JUMPI PUSH1 0x40 MLOAD PUSH3 0x461BCD PUSH1 0xE5 SHL DUP2 MSTORE PUSH1 0x20 PUSH1 0x4 DUP3 ADD MSTORE PUSH1 0x11 PUSH1 0x24 DUP3 ADD MSTORE PUSH17 0x1A5B9D985B1A59081C185E5B1BD8591251 PUSH1 0x7A SHL PUSH1 0x44 DUP3 ADD MSTORE PUSH1 0x64 ADD PUSH2 0x638 JUMP JUMPDEST PUSH2 0x7E0 PUSH1 0x1 DUP3 PUSH2 0x1DD2 JUMP JUMPDEST SWAP1 POP PUSH2 0x7EC DUP4 DUP3 PUSH2 0x153A JUMP JUMPDEST PUSH1 0x20 DUP1 DUP5 ADD SWAP2 SWAP1 SWAP2 MSTORE PUSH2 0x7FF SWAP1 DUP3 PUSH2 0x1DD2 JUMP JUMPDEST SWAP1 POP DUP3 MLOAD DUP2 EQ PUSH2 0x84A JUMPI PUSH1 0x40 MLOAD PUSH3 0x461BCD PUSH1 0xE5 SHL DUP2 MSTORE PUSH1 0x20 PUSH1 0x4 DUP3 ADD MSTORE PUSH1 0x16 PUSH1 0x24 DUP3 ADD MSTORE PUSH22 0xD2DCECC2D8D2C840E0C2F2D8DEC2C840D8CADCCEE8D PUSH1 0x53 SHL PUSH1 0x44 DUP3 ADD MSTORE PUSH1 0x64 ADD PUSH2 0x638 JUMP JUMPDEST POP SWAP2 SWAP1 POP JUMP JUMPDEST PUSH1 0x0 SLOAD PUSH1 0x1 PUSH1 0x1 PUSH1 0xA0 SHL SUB AND CALLER EQ PUSH2 0x87A JUMPI PUSH1 0x40 MLOAD PUSH3 0x461BCD PUSH1 0xE5 SHL DUP2 MSTORE PUSH1 0x4 ADD PUSH2 0x638 SWAP1 PUSH2 0x1DE5 JUMP JUMPDEST PUSH2 0xFFFF SWAP1 SWAP2 AND PUSH1 0x0 SWAP1 DUP2 MSTORE PUSH1 0x4 PUSH1 0x20 MSTORE PUSH1 0x40 SWAP1 KECCAK256 SSTORE JUMP JUMPDEST PUSH1 0x0 PUSH32 0x0 PUSH1 0x1 PUSH1 0x1 PUSH1 0xA0 SHL SUB AND PUSH4 0x1A90A219 PUSH1 0x40 MLOAD DUP2 PUSH4 0xFFFFFFFF AND PUSH1 0xE0 SHL DUP2 MSTORE PUSH1 0x4 ADD PUSH1 0x20 PUSH1 0x40 MLOAD DUP1 DUP4 SUB DUP2 DUP7 GAS STATICCALL ISZERO DUP1 ISZERO PUSH2 0x8F1 JUMPI RETURNDATASIZE PUSH1 0x0 DUP1 RETURNDATACOPY RETURNDATASIZE PUSH1 0x0 REVERT JUMPDEST POP POP POP POP PUSH1 0x40 MLOAD RETURNDATASIZE PUSH1 0x1F NOT PUSH1 0x1F DUP3 ADD AND DUP3 ADD DUP1 PUSH1 0x40 MSTORE POP DUP2 ADD SWAP1 PUSH2 0x915 SWAP2 SWAP1 PUSH2 0x1E1A JUMP JUMPDEST SWAP1 POP SWAP1 JUMP JUMPDEST PUSH1 0x0 DUP1 PUSH32 0x0 PUSH1 0x1 PUSH1 0x1 PUSH1 0xA0 SHL SUB AND PUSH4 0x1A90A219 PUSH1 0x40 MLOAD DUP2 PUSH4 0xFFFFFFFF AND PUSH1 0xE0 SHL DUP2 MSTORE PUSH1 0x4 ADD PUSH1 0x20 PUSH1 0x40 MLOAD DUP1 DUP4 SUB DUP2 DUP7 GAS STATICCALL ISZERO DUP1 ISZERO PUSH2 0x97B JUMPI RETURNDATASIZE PUSH1 0x0 DUP1 RETURNDATACOPY RETURNDATASIZE PUSH1 0x0 REVERT JUMPDEST POP POP POP POP PUSH1 0x40 MLOAD RETURNDATASIZE PUSH1 0x1F NOT PUSH1 0x1F DUP3 ADD AND DUP3 ADD DUP1 PUSH1 0x40 MSTORE POP DUP2 ADD SWAP1 PUSH2 0x99F SWAP2 SWAP1 PUSH2 0x1E1A JUMP JUMPDEST SWAP1 POP DUP1 CALLVALUE LT ISZERO PUSH2 0x9E5 JUMPI PUSH1 0x40 MLOAD PUSH3 0x461BCD PUSH1 0xE5 SHL DUP2 MSTORE PUSH1 0x20 PUSH1 0x4 DUP3 ADD MSTORE PUSH1 0x11 PUSH1 0x24 DUP3 ADD MSTORE PUSH17 0x496E76616C6964206D73672076616C7565 PUSH1 0x78 SHL PUSH1 0x44 DUP3 ADD MSTORE PUSH1 0x64 ADD PUSH2 0x638 JUMP JUMPDEST PUSH2 0xA03 PUSH1 0x1 PUSH1 0x1 PUSH1 0xA0 SHL SUB DUP8 AND CALLER ADDRESS PUSH1 0x1 PUSH1 0x1 PUSH1 0x40 SHL SUB DUP10 AND PUSH2 0x159D JUMP JUMPDEST CALLER PUSH1 0x0 SWAP1 DUP2 MSTORE PUSH1 0x3 PUSH1 0x20 SWAP1 DUP2 MSTORE PUSH1 0x40 DUP1 DUP4 KECCAK256 PUSH1 0x1 PUSH1 0x1 PUSH1 0xA0 SHL SUB DUP11 DUP2 AND DUP6 MSTORE SWAP1 DUP4 MSTORE DUP2 DUP5 KECCAK256 PUSH1 0x1 PUSH1 0x1 PUSH1 0x40 SHL SUB DUP11 AND SWAP1 SSTORE DUP2 MLOAD PUSH4 0x4D4502C9 PUSH1 0xE1 SHL DUP2 MSTORE SWAP2 MLOAD DUP9 SWAP4 DUP9 SWAP4 TIMESTAMP SWAP4 PUSH32 0x0 AND SWAP3 PUSH4 0x9A8A0592 SWAP3 PUSH1 0x4 DUP1 DUP5 ADD SWAP4 SWAP2 SWAP3 SWAP2 DUP3 SWAP1 SUB ADD DUP2 DUP7 GAS STATICCALL ISZERO DUP1 ISZERO PUSH2 0xA93 JUMPI RETURNDATASIZE PUSH1 0x0 DUP1 RETURNDATACOPY RETURNDATASIZE PUSH1 0x0 REVERT JUMPDEST POP POP POP POP PUSH1 0x40 MLOAD RETURNDATASIZE PUSH1 0x1F NOT PUSH1 0x1F DUP3 ADD AND DUP3 ADD DUP1 PUSH1 0x40 MSTORE POP DUP2 ADD SWAP1 PUSH2 0xAB7 SWAP2 SWAP1 PUSH2 0x1E33 JUMP JUMPDEST PUSH1 0x40 MLOAD PUSH1 0x1 PUSH1 0x1 PUSH1 0xC0 SHL SUB NOT PUSH1 0xC0 SWAP6 DUP7 SHL DUP2 AND PUSH1 0x20 DUP4 ADD MSTORE SWAP4 DUP6 SHL DUP5 AND PUSH1 0x28 DUP3 ADD MSTORE SWAP2 DUP5 SHL DUP4 AND PUSH1 0x30 DUP4 ADD MSTORE PUSH1 0x1 PUSH1 0x1 PUSH1 0xF0 SHL SUB NOT PUSH1 0xF0 SWAP2 SWAP1 SWAP2 SHL AND PUSH1 0x38 DUP3 ADD MSTORE PUSH1 0x1 PUSH1 0x1 PUSH1 0x60 SHL SUB NOT CALLER PUSH1 0x60 SWAP1 DUP2 SHL DUP3 AND PUSH1 0x3A DUP5 ADD MSTORE DUP12 SWAP1 SHL AND PUSH1 0x5A DUP3 ADD MSTORE SWAP2 DUP9 SWAP1 SHL AND PUSH1 0x7A DUP3 ADD MSTORE PUSH1 0x82 ADD PUSH1 0x40 DUP1 MLOAD PUSH1 0x1F NOT DUP2 DUP5 SUB ADD DUP2 MSTORE DUP3 DUP3 ADD DUP3 MSTORE PUSH1 0x1 DUP1 DUP5 MSTORE PUSH1 0x20 DUP5 DUP2 ADD DUP4 SWAP1 MSTORE DUP3 MLOAD SWAP4 MLOAD SWAP3 SWAP6 POP PUSH1 0x0 SWAP4 PUSH2 0xB5B SWAP4 SWAP1 SWAP2 DUP8 SWAP2 ADD PUSH2 0x1E50 JUMP JUMPDEST PUSH1 0x40 DUP1 MLOAD DUP1 DUP4 SUB PUSH1 0x1F NOT ADD DUP2 MSTORE SWAP2 SWAP1 MSTORE PUSH1 0x1 DUP1 SLOAD SWAP2 SWAP3 POP PUSH32 0x0 PUSH1 0x1 PUSH1 0x1 PUSH1 0xA0 SHL SUB AND SWAP2 PUSH4 0xB19A437E SWAP2 DUP8 SWAP2 PUSH1 0x1 PUSH1 0xA0 SHL SWAP1 DIV PUSH4 0xFFFFFFFF AND SWAP1 PUSH1 0x14 PUSH2 0xBBE DUP4 PUSH2 0x1E9A JUMP JUMPDEST SWAP2 SWAP1 PUSH2 0x100 EXP DUP2 SLOAD DUP2 PUSH4 0xFFFFFFFF MUL NOT AND SWAP1 DUP4 PUSH4 0xFFFFFFFF AND MUL OR SWAP1 SSTORE POP DUP5 PUSH1 0xC8 PUSH1 0x40 MLOAD DUP6 PUSH4 0xFFFFFFFF AND PUSH1 0xE0 SHL DUP2 MSTORE PUSH1 0x4 ADD PUSH2 0xBFD SWAP4 SWAP3 SWAP2 SWAP1 PUSH2 0x1EBF JUMP JUMPDEST PUSH1 0x20 PUSH1 0x40 MLOAD DUP1 DUP4 SUB DUP2 DUP6 DUP9 GAS CALL ISZERO DUP1 ISZERO PUSH2 0xC1B JUMPI RETURNDATASIZE PUSH1 0x0 DUP1 RETURNDATACOPY RETURNDATASIZE PUSH1 0x0 REVERT JUMPDEST POP POP POP POP POP PUSH1 0x40 MLOAD RETURNDATASIZE PUSH1 0x1F NOT PUSH1 0x1F DUP3 ADD AND DUP3 ADD DUP1 PUSH1 0x40 MSTORE POP DUP2 ADD SWAP1 PUSH2 0xC40 SWAP2 SWAP1 PUSH2 0x1EF1 JUMP JUMPDEST SWAP10 SWAP9 POP POP POP POP POP POP POP POP POP JUMP JUMPDEST PUSH1 0x1 SLOAD PUSH1 0x1 PUSH1 0x1 PUSH1 0xA0 SHL SUB AND CALLER EQ PUSH2 0xC64 JUMPI PUSH1 0x0 DUP1 REVERT JUMPDEST PUSH1 0x1 SLOAD PUSH1 0x0 DUP1 SLOAD PUSH1 0x40 MLOAD PUSH1 0x1 PUSH1 0x1 PUSH1 0xA0 SHL SUB SWAP4 DUP5 AND SWAP4 SWAP1 SWAP2 AND SWAP2 PUSH1 0x0 DUP1 MLOAD PUSH1 0x20 PUSH2 0x207F DUP4 CODECOPY DUP2 MLOAD SWAP2 MSTORE SWAP2 LOG3 PUSH1 0x1 SLOAD PUSH1 0x0 DUP1 SLOAD PUSH1 0x1 PUSH1 0x1 PUSH1 0xA0 SHL SUB NOT AND PUSH1 0x1 PUSH1 0x1 PUSH1 0xA0 SHL SUB SWAP1 SWAP3 AND SWAP2 SWAP1 SWAP2 OR SWAP1 SSTORE JUMP JUMPDEST PUSH1 0x0 SLOAD PUSH1 0x1 PUSH1 0x1 PUSH1 0xA0 SHL SUB AND CALLER EQ PUSH2 0xCDD JUMPI PUSH1 0x40 MLOAD PUSH3 0x461BCD PUSH1 0xE5 SHL DUP2 MSTORE PUSH1 0x4 ADD PUSH2 0x638 SWAP1 PUSH2 0x1DE5 JUMP JUMPDEST DUP1 PUSH2 0xD13 JUMPI PUSH1 0x40 MLOAD PUSH3 0x461BCD PUSH1 0xE5 SHL DUP2 MSTORE PUSH1 0x4 ADD PUSH2 0x638 SWAP1 PUSH1 0x20 DUP1 DUP3 MSTORE PUSH1 0x4 SWAP1 DUP3 ADD MSTORE PUSH4 0x42333241 PUSH1 0xE0 SHL PUSH1 0x40 DUP3 ADD MSTORE PUSH1 0x60 ADD SWAP1 JUMP JUMPDEST PUSH1 0x2 SSTORE JUMP JUMPDEST PUSH1 0x0 SLOAD PUSH1 0x1 PUSH1 0x1 PUSH1 0xA0 SHL SUB AND CALLER EQ PUSH2 0xD42 JUMPI PUSH1 0x40 MLOAD PUSH3 0x461BCD PUSH1 0xE5 SHL DUP2 MSTORE PUSH1 0x4 ADD PUSH2 0x638 SWAP1 PUSH2 0x1DE5 JUMP JUMPDEST PUSH1 0x1 PUSH1 0x1 PUSH1 0xA0 SHL SUB DUP2 AND PUSH2 0xDA7 JUMPI PUSH1 0x40 MLOAD PUSH3 0x461BCD PUSH1 0xE5 SHL DUP2 MSTORE PUSH1 0x20 PUSH1 0x4 DUP3 ADD MSTORE PUSH1 0x26 PUSH1 0x24 DUP3 ADD MSTORE PUSH32 0x4F776E61626C653A206E6577206F776E657220697320746865207A65726F2061 PUSH1 0x44 DUP3 ADD MSTORE PUSH6 0x646472657373 PUSH1 0xD0 SHL PUSH1 0x64 DUP3 ADD MSTORE PUSH1 0x84 ADD PUSH2 0x638 JUMP JUMPDEST PUSH1 0x1 DUP1 SLOAD PUSH1 0x1 PUSH1 0x1 PUSH1 0xA0 SHL SUB NOT AND PUSH1 0x1 PUSH1 0x1 PUSH1 0xA0 SHL SUB SWAP3 SWAP1 SWAP3 AND SWAP2 SWAP1 SWAP2 OR SWAP1 SSTORE JUMP JUMPDEST PUSH1 0x0 SLOAD PUSH1 0x1 PUSH1 0x1 PUSH1 0xA0 SHL SUB AND CALLER EQ PUSH2 0xDF3 JUMPI PUSH1 0x40 MLOAD PUSH3 0x461BCD PUSH1 0xE5 SHL DUP2 MSTORE PUSH1 0x4 ADD PUSH2 0x638 SWAP1 PUSH2 0x1DE5 JUMP JUMPDEST PUSH1 0x0 DUP1 SLOAD PUSH1 0x40 MLOAD PUSH1 0x1 PUSH1 0x1 PUSH1 0xA0 SHL SUB SWAP1 SWAP2 AND SWAP1 PUSH1 0x0 DUP1 MLOAD PUSH1 0x20 PUSH2 0x207F DUP4 CODECOPY DUP2 MLOAD SWAP2 MSTORE SWAP1 DUP4 SWAP1 LOG3 PUSH1 0x0 DUP1 SLOAD PUSH1 0x1 PUSH1 0x1 PUSH1 0xA0 SHL SUB NOT AND SWAP1 SSTORE JUMP JUMPDEST PUSH1 0x0 PUSH32 0x0 PUSH1 0x1 PUSH1 0x1 PUSH1 0xA0 SHL SUB AND PUSH4 0x9A8A0592 PUSH1 0x40 MLOAD DUP2 PUSH4 0xFFFFFFFF AND PUSH1 0xE0 SHL DUP2 MSTORE PUSH1 0x4 ADD PUSH1 0x20 PUSH1 0x40 MLOAD DUP1 DUP4 SUB DUP2 DUP7 GAS STATICCALL ISZERO DUP1 ISZERO PUSH2 0xE8B JUMPI RETURNDATASIZE PUSH1 0x0 DUP1 RETURNDATACOPY RETURNDATASIZE PUSH1 0x0 REVERT JUMPDEST POP POP POP POP PUSH1 0x40 MLOAD RETURNDATASIZE PUSH1 0x1F NOT PUSH1 0x1F DUP3 ADD AND DUP3 ADD DUP1 PUSH1 0x40 MSTORE POP DUP2 ADD SWAP1 PUSH2 0x915 SWAP2 SWAP1 PUSH2 0x1E33 JUMP JUMPDEST PUSH1 0x0 SLOAD PUSH1 0x1 PUSH1 0x1 PUSH1 0xA0 SHL SUB AND CALLER EQ PUSH2 0xED9 JUMPI PUSH1 0x40 MLOAD PUSH3 0x461BCD PUSH1 0xE5 SHL DUP2 MSTORE PUSH1 0x4 ADD PUSH2 0x638 SWAP1 PUSH2 0x1DE5 JUMP JUMPDEST PUSH1 0x0 SWAP2 DUP3 MSTORE PUSH1 0x5 PUSH1 0x20 MSTORE PUSH1 0x40 SWAP1 SWAP2 KECCAK256 DUP1 SLOAD PUSH1 0x1 PUSH1 0x1 PUSH1 0xA0 SHL SUB NOT AND PUSH1 0x1 PUSH1 0x1 PUSH1 0xA0 SHL SUB SWAP1 SWAP3 AND SWAP2 SWAP1 SWAP2 OR SWAP1 SSTORE JUMP JUMPDEST PUSH1 0x40 MLOAD PUSH4 0x134F89BD PUSH1 0xE0 SHL DUP2 MSTORE PUSH2 0xFFFF DUP3 AND PUSH1 0x4 DUP3 ADD MSTORE PUSH1 0x0 SWAP1 DUP2 SWAP1 PUSH1 0x1 PUSH1 0x1 PUSH1 0xA0 SHL SUB PUSH32 0x0 AND SWAP1 PUSH4 0x134F89BD SWAP1 PUSH1 0x24 ADD PUSH1 0x20 PUSH1 0x40 MLOAD DUP1 DUP4 SUB DUP2 DUP7 GAS STATICCALL ISZERO DUP1 ISZERO PUSH2 0xF74 JUMPI RETURNDATASIZE PUSH1 0x0 DUP1 RETURNDATACOPY RETURNDATASIZE PUSH1 0x0 REVERT JUMPDEST POP POP POP POP PUSH1 0x40 MLOAD RETURNDATASIZE PUSH1 0x1F NOT PUSH1 0x1F DUP3 ADD AND DUP3 ADD DUP1 PUSH1 0x40 MSTORE POP DUP2 ADD SWAP1 PUSH2 0xF98 SWAP2 SWAP1 PUSH2 0x1F0E JUMP JUMPDEST PUSH1 0x40 MLOAD PUSH4 0x9E68B129 PUSH1 0xE0 SHL DUP2 MSTORE PUSH4 0xFFFFFFFF DUP3 AND PUSH1 0x4 DUP3 ADD MSTORE PUSH1 0x24 DUP2 ADD DUP7 SWAP1 MSTORE SWAP1 SWAP2 POP PUSH32 0x0 PUSH1 0x1 PUSH1 0x1 PUSH1 0xA0 SHL SUB AND SWAP1 PUSH4 0x9E68B129 SWAP1 PUSH1 0x44 ADD PUSH1 0x20 PUSH1 0x40 MLOAD DUP1 DUP4 SUB DUP2 DUP7 GAS STATICCALL ISZERO DUP1 ISZERO PUSH2 0x100C JUMPI RETURNDATASIZE PUSH1 0x0 DUP1 RETURNDATACOPY RETURNDATASIZE PUSH1 0x0 REVERT JUMPDEST POP POP POP POP PUSH1 0x40 MLOAD RETURNDATASIZE PUSH1 0x1F NOT PUSH1 0x1F DUP3 ADD AND DUP3 ADD DUP1 PUSH1 0x40 MSTORE POP DUP2 ADD SWAP1 PUSH2 0x1030 SWAP2 SWAP1 PUSH2 0x1E1A JUMP JUMPDEST SWAP2 POP POP JUMPDEST SWAP3 SWAP2 POP POP JUMP JUMPDEST PUSH1 0x0 DUP1 PUSH1 0x0 PUSH32 0x0 PUSH1 0x1 PUSH1 0x1 PUSH1 0xA0 SHL SUB AND PUSH4 0xC0FD8BDE DUP7 DUP7 PUSH1 0x40 MLOAD DUP4 PUSH4 0xFFFFFFFF AND PUSH1 0xE0 SHL DUP2 MSTORE PUSH1 0x4 ADD PUSH2 0x108D SWAP3 SWAP2 SWAP1 PUSH2 0x1F29 JUMP JUMPDEST PUSH1 0x0 PUSH1 0x40 MLOAD DUP1 DUP4 SUB DUP2 DUP7 GAS STATICCALL ISZERO DUP1 ISZERO PUSH2 0x10AA JUMPI RETURNDATASIZE PUSH1 0x0 DUP1 RETURNDATACOPY RETURNDATASIZE PUSH1 0x0 REVERT JUMPDEST POP POP POP POP PUSH1 0x40 MLOAD RETURNDATASIZE PUSH1 0x0 DUP3 RETURNDATACOPY PUSH1 0x1F RETURNDATASIZE SWAP1 DUP2 ADD PUSH1 0x1F NOT AND DUP3 ADD PUSH1 0x40 MSTORE PUSH2 0x10D2 SWAP2 SWAP1 DUP2 ADD SWAP1 PUSH2 0x1F58 JUMP JUMPDEST SWAP3 POP SWAP3 POP SWAP3 POP DUP2 DUP2 SWAP1 PUSH2 0x10F8 JUMPI PUSH1 0x40 MLOAD PUSH3 0x461BCD PUSH1 0xE5 SHL DUP2 MSTORE PUSH1 0x4 ADD PUSH2 0x638 SWAP2 SWAP1 PUSH2 0x19C0 JUMP JUMPDEST POP PUSH1 0x80 DUP4 ADD MLOAD PUSH1 0x60 DUP5 ADD MLOAD PUSH2 0xFFFF AND PUSH1 0x0 SWAP1 DUP2 MSTORE PUSH1 0x4 PUSH1 0x20 MSTORE PUSH1 0x40 SWAP1 KECCAK256 SLOAD EQ PUSH2 0x1133 JUMPI PUSH1 0x40 MLOAD PUSH3 0x461BCD PUSH1 0xE5 SHL DUP2 MSTORE PUSH1 0x4 ADD PUSH2 0x638 SWAP1 PUSH2 0x1D8A JUMP JUMPDEST PUSH1 0x1 SLOAD PUSH1 0xA0 DUP5 ADD MLOAD PUSH1 0x1 PUSH1 0x1 PUSH1 0x40 SHL SUB PUSH1 0x1 PUSH1 0xC0 SHL SWAP1 SWAP3 DIV DUP3 AND SWAP2 AND LT ISZERO PUSH2 0x1197 JUMPI PUSH1 0x40 MLOAD PUSH3 0x461BCD PUSH1 0xE5 SHL DUP2 MSTORE PUSH1 0x20 PUSH1 0x4 DUP3 ADD MSTORE PUSH1 0x17 PUSH1 0x24 DUP3 ADD MSTORE PUSH23 0x24B73B30B634B21029B2B8BAB2B731B290373AB6B132B9 PUSH1 0x49 SHL PUSH1 0x44 DUP3 ADD MSTORE PUSH1 0x64 ADD PUSH2 0x638 JUMP JUMPDEST PUSH1 0xA0 DUP4 ADD MLOAD PUSH2 0x11A7 SWAP1 PUSH1 0x1 PUSH2 0x1FEB JUMP JUMPDEST PUSH1 0x1 PUSH1 0x18 PUSH2 0x100 EXP DUP2 SLOAD DUP2 PUSH1 0x1 PUSH1 0x1 PUSH1 0x40 SHL SUB MUL NOT AND SWAP1 DUP4 PUSH1 0x1 PUSH1 0x1 PUSH1 0x40 SHL SUB AND MUL OR SWAP1 SSTORE POP TIMESTAMP PUSH3 0x2A300 DUP5 PUSH1 0x20 ADD MLOAD PUSH4 0xFFFFFFFF AND PUSH2 0x11E7 SWAP2 SWAP1 PUSH2 0x1DD2 JUMP JUMPDEST LT ISZERO PUSH2 0x122F JUMPI PUSH1 0x40 MLOAD PUSH3 0x461BCD PUSH1 0xE5 SHL DUP2 MSTORE PUSH1 0x20 PUSH1 0x4 DUP3 ADD MSTORE PUSH1 0x17 PUSH1 0x24 DUP3 ADD MSTORE PUSH23 0x13595CDCD859D9481B9BC81B1BDB99D95C881D985B1A59 PUSH1 0x4A SHL PUSH1 0x44 DUP3 ADD MSTORE PUSH1 0x64 ADD PUSH2 0x638 JUMP JUMPDEST PUSH1 0x0 DUP1 PUSH1 0x0 DUP1 PUSH1 0x0 DUP8 PUSH1 0xE0 ADD MLOAD DUP1 PUSH1 0x20 ADD SWAP1 MLOAD DUP2 ADD SWAP1 PUSH2 0x124F SWAP2 SWAP1 PUSH2 0x200A JUMP JUMPDEST SWAP5 POP SWAP5 POP SWAP5 POP SWAP5 POP SWAP5 POP PUSH32 0x0 PUSH1 0x1 PUSH1 0x1 PUSH1 0xA0 SHL SUB AND PUSH4 0x9A8A0592 PUSH1 0x40 MLOAD DUP2 PUSH4 0xFFFFFFFF AND PUSH1 0xE0 SHL DUP2 MSTORE PUSH1 0x4 ADD PUSH1 0x20 PUSH1 0x40 MLOAD DUP1 DUP4 SUB DUP2 DUP7 GAS STATICCALL ISZERO DUP1 ISZERO PUSH2 0x12B7 JUMPI RETURNDATASIZE PUSH1 0x0 DUP1 RETURNDATACOPY RETURNDATASIZE PUSH1 0x0 REVERT JUMPDEST POP POP POP POP PUSH1 0x40 MLOAD RETURNDATASIZE PUSH1 0x1F NOT PUSH1 0x1F DUP3 ADD AND DUP3 ADD DUP1 PUSH1 0x40 MSTORE POP DUP2 ADD SWAP1 PUSH2 0x12DB SWAP2 SWAP1 PUSH2 0x1E33 JUMP JUMPDEST PUSH2 0xFFFF AND DUP3 PUSH2 0xFFFF AND EQ PUSH2 0x1322 JUMPI PUSH1 0x40 MLOAD PUSH3 0x461BCD PUSH1 0xE5 SHL DUP2 MSTORE PUSH1 0x20 PUSH1 0x4 DUP3 ADD MSTORE PUSH1 0xE PUSH1 0x24 DUP3 ADD MSTORE PUSH14 0x15DC9BDB99C818DA185A5B881259 PUSH1 0x92 SHL PUSH1 0x44 DUP3 ADD MSTORE PUSH1 0x64 ADD PUSH2 0x638 JUMP JUMPDEST PUSH1 0x1 PUSH1 0x1 PUSH1 0x60 SHL SUB NOT ADDRESS PUSH1 0x60 SHL AND DUP2 EQ PUSH2 0x136E JUMPI PUSH1 0x40 MLOAD PUSH3 0x461BCD PUSH1 0xE5 SHL DUP2 MSTORE PUSH1 0x20 PUSH1 0x4 DUP3 ADD MSTORE PUSH1 0xD PUSH1 0x24 DUP3 ADD MSTORE PUSH13 0x57726F6E672061646472657373 PUSH1 0x98 SHL PUSH1 0x44 DUP3 ADD MSTORE PUSH1 0x64 ADD PUSH2 0x638 JUMP JUMPDEST PUSH1 0x1 PUSH1 0x1 PUSH1 0xA0 SHL SUB DUP1 DUP7 AND PUSH1 0x0 SWAP1 DUP2 MSTORE PUSH1 0x3 PUSH1 0x20 SWAP1 DUP2 MSTORE PUSH1 0x40 DUP1 DUP4 KECCAK256 SWAP4 DUP9 AND DUP4 MSTORE SWAP3 SWAP1 MSTORE KECCAK256 SLOAD DUP4 DUP2 LT ISZERO PUSH2 0x13D5 JUMPI PUSH1 0x40 MLOAD PUSH3 0x461BCD PUSH1 0xE5 SHL DUP2 MSTORE PUSH1 0x20 PUSH1 0x4 DUP3 ADD MSTORE PUSH1 0xE PUSH1 0x24 DUP3 ADD MSTORE PUSH14 0x125B9D985B1A5908185B5BDD5B9D PUSH1 0x92 SHL PUSH1 0x44 DUP3 ADD MSTORE PUSH1 0x64 ADD PUSH2 0x638 JUMP JUMPDEST PUSH1 0x1 PUSH1 0x1 PUSH1 0xA0 SHL SUB DUP1 DUP8 AND PUSH1 0x0 SWAP1 DUP2 MSTORE PUSH1 0x3 PUSH1 0x20 SWAP1 DUP2 MSTORE PUSH1 0x40 DUP1 DUP4 KECCAK256 SWAP4 DUP10 AND DUP4 MSTORE SWAP3 SWAP1 MSTORE SWAP1 DUP2 KECCAK256 DUP1 SLOAD DUP7 SWAP3 SWAP1 PUSH2 0x140C SWAP1 DUP5 SWAP1 PUSH2 0x206B JUMP JUMPDEST SWAP1 SWAP2 SSTORE POP PUSH2 0x1426 SWAP1 POP PUSH1 0x1 PUSH1 0x1 PUSH1 0xA0 SHL SUB DUP7 AND DUP8 DUP7 PUSH2 0x1476 JUMP JUMPDEST DUP5 PUSH1 0x1 PUSH1 0x1 PUSH1 0xA0 SHL SUB AND PUSH32 0x9DD3045B6DF532ED81BEB2A333CEC6249DAFD3C2FC54C80C50155CB0E1A0BA1E DUP6 PUSH1 0x40 MLOAD PUSH2 0x1461 SWAP2 DUP2 MSTORE PUSH1 0x20 ADD SWAP1 JUMP JUMPDEST PUSH1 0x40 MLOAD DUP1 SWAP2 SUB SWAP1 LOG2 POP POP POP POP POP POP POP POP POP POP POP JUMP JUMPDEST PUSH1 0x40 MLOAD PUSH1 0x1 PUSH1 0x1 PUSH1 0xA0 SHL SUB DUP4 DUP2 AND PUSH1 0x24 DUP4 ADD MSTORE PUSH1 0x44 DUP3 ADD DUP4 SWAP1 MSTORE PUSH2 0x14D5 SWAP2 DUP6 SWAP2 DUP3 AND SWAP1 PUSH4 0xA9059CBB SWAP1 PUSH1 0x64 ADD JUMPDEST PUSH1 0x40 MLOAD PUSH1 0x20 DUP2 DUP4 SUB SUB DUP2 MSTORE SWAP1 PUSH1 0x40 MSTORE SWAP2 POP PUSH1 0xE0 SHL PUSH1 0x20 DUP3 ADD DUP1 MLOAD PUSH1 0x1 PUSH1 0x1 PUSH1 0xE0 SHL SUB DUP4 DUP2 DUP4 AND OR DUP4 MSTORE POP POP POP POP PUSH2 0x15DC JUMP JUMPDEST POP POP POP JUMP JUMPDEST PUSH1 0x0 DUP2 DUP4 MLOAD GT PUSH2 0x1522 JUMPI PUSH1 0x40 MLOAD PUSH3 0x461BCD PUSH1 0xE5 SHL DUP2 MSTORE PUSH1 0x20 PUSH1 0x4 DUP3 ADD MSTORE PUSH1 0x13 PUSH1 0x24 DUP3 ADD MSTORE PUSH19 0x746F55696E74385F6F75744F66426F756E6473 PUSH1 0x68 SHL PUSH1 0x44 DUP3 ADD MSTORE PUSH1 0x64 ADD PUSH2 0x638 JUMP JUMPDEST PUSH1 0x0 PUSH2 0x152F PUSH1 0x1 DUP5 PUSH2 0x1DD2 JUMP JUMPDEST SWAP1 SWAP4 ADD MLOAD SWAP4 SWAP3 POP POP POP JUMP JUMPDEST PUSH1 0x0 DUP1 PUSH2 0x1548 PUSH1 0x20 DUP5 PUSH2 0x1DD2 JUMP JUMPDEST SWAP1 POP DUP1 DUP5 MLOAD LT ISZERO PUSH2 0x1593 JUMPI PUSH1 0x40 MLOAD PUSH3 0x461BCD PUSH1 0xE5 SHL DUP2 MSTORE PUSH1 0x20 PUSH1 0x4 DUP3 ADD MSTORE PUSH1 0x15 PUSH1 0x24 DUP3 ADD MSTORE PUSH21 0x746F427974657333325F6F75744F66426F756E6473 PUSH1 0x58 SHL PUSH1 0x44 DUP3 ADD MSTORE PUSH1 0x64 ADD PUSH2 0x638 JUMP JUMPDEST SWAP1 SWAP3 ADD MLOAD SWAP3 SWAP2 POP POP JUMP JUMPDEST PUSH1 0x40 MLOAD PUSH1 0x1 PUSH1 0x1 PUSH1 0xA0 SHL SUB DUP5 DUP2 AND PUSH1 0x24 DUP4 ADD MSTORE DUP4 DUP2 AND PUSH1 0x44 DUP4 ADD MSTORE PUSH1 0x64 DUP3 ADD DUP4 SWAP1 MSTORE PUSH2 0x15D6 SWAP2 DUP7 SWAP2 DUP3 AND SWAP1 PUSH4 0x23B872DD SWAP1 PUSH1 0x84 ADD PUSH2 0x14A3 JUMP JUMPDEST POP POP POP POP JUMP JUMPDEST PUSH1 0x0 DUP1 PUSH1 0x20 PUSH1 0x0 DUP5 MLOAD PUSH1 0x20 DUP7 ADD PUSH1 0x0 DUP9 GAS CALL DUP1 PUSH2 0x15FF JUMPI PUSH1 0x40 MLOAD RETURNDATASIZE PUSH1 0x0 DUP3 RETURNDATACOPY RETURNDATASIZE DUP2 REVERT JUMPDEST POP POP PUSH1 0x0 MLOAD RETURNDATASIZE SWAP2 POP DUP2 ISZERO PUSH2 0x1617 JUMPI DUP1 PUSH1 0x1 EQ ISZERO PUSH2 0x1624 JUMP JUMPDEST PUSH1 0x1 PUSH1 0x1 PUSH1 0xA0 SHL SUB DUP5 AND EXTCODESIZE ISZERO JUMPDEST ISZERO PUSH2 0x15D6 JUMPI PUSH1 0x40 MLOAD PUSH4 0x5274AFE7 PUSH1 0xE0 SHL DUP2 MSTORE PUSH1 0x1 PUSH1 0x1 PUSH1 0xA0 SHL SUB DUP6 AND PUSH1 0x4 DUP3 ADD MSTORE PUSH1 0x24 ADD PUSH2 0x638 JUMP JUMPDEST PUSH4 0x4E487B71 PUSH1 0xE0 SHL PUSH1 0x0 MSTORE PUSH1 0x41 PUSH1 0x4 MSTORE PUSH1 0x24 PUSH1 0x0 REVERT JUMPDEST PUSH1 0x40 MLOAD PUSH1 0x80 DUP2 ADD PUSH1 0x1 PUSH1 0x1 PUSH1 0x40 SHL SUB DUP2 GT DUP3 DUP3 LT OR ISZERO PUSH2 0x1685 JUMPI PUSH2 0x1685 PUSH2 0x164D JUMP JUMPDEST PUSH1 0x40 MSTORE SWAP1 JUMP JUMPDEST PUSH1 0x40 MLOAD PUSH2 0x160 DUP2 ADD PUSH1 0x1 PUSH1 0x1 PUSH1 0x40 SHL SUB DUP2 GT DUP3 DUP3 LT OR ISZERO PUSH2 0x1685 JUMPI PUSH2 0x1685 PUSH2 0x164D JUMP JUMPDEST PUSH1 0x40 MLOAD PUSH2 0x100 DUP2 ADD PUSH1 0x1 PUSH1 0x1 PUSH1 0x40 SHL SUB DUP2 GT DUP3 DUP3 LT OR ISZERO PUSH2 0x1685 JUMPI PUSH2 0x1685 PUSH2 0x164D JUMP JUMPDEST PUSH1 0x40 MLOAD PUSH1 0x1F DUP3 ADD PUSH1 0x1F NOT AND DUP2 ADD PUSH1 0x1 PUSH1 0x1 PUSH1 0x40 SHL SUB DUP2 GT DUP3 DUP3 LT OR ISZERO PUSH2 0x16F9 JUMPI PUSH2 0x16F9 PUSH2 0x164D JUMP JUMPDEST PUSH1 0x40 MSTORE SWAP2 SWAP1 POP JUMP JUMPDEST PUSH1 0x0 PUSH1 0x1 PUSH1 0x1 PUSH1 0x40 SHL SUB DUP3 GT ISZERO PUSH2 0x171A JUMPI PUSH2 0x171A PUSH2 0x164D JUMP JUMPDEST POP PUSH1 0x1F ADD PUSH1 0x1F NOT AND PUSH1 0x20 ADD SWAP1 JUMP JUMPDEST PUSH1 0x0 PUSH1 0x20 DUP3 DUP5 SUB SLT ISZERO PUSH2 0x173A JUMPI PUSH1 0x0 DUP1 REVERT JUMPDEST DUP2 CALLDATALOAD PUSH1 0x1 PUSH1 0x1 PUSH1 0x40 SHL SUB DUP2 GT ISZERO PUSH2 0x1750 JUMPI PUSH1 0x0 DUP1 REVERT JUMPDEST DUP3 ADD PUSH1 0x1F DUP2 ADD DUP5 SGT PUSH2 0x1761 JUMPI PUSH1 0x0 DUP1 REVERT JUMPDEST DUP1 CALLDATALOAD PUSH2 0x1774 PUSH2 0x176F DUP3 PUSH2 0x1701 JUMP JUMPDEST PUSH2 0x16D1 JUMP JUMPDEST DUP2 DUP2 MSTORE DUP6 PUSH1 0x20 DUP4 DUP6 ADD ADD GT ISZERO PUSH2 0x1789 JUMPI PUSH1 0x0 DUP1 REVERT JUMPDEST DUP2 PUSH1 0x20 DUP5 ADD PUSH1 0x20 DUP4 ADD CALLDATACOPY PUSH1 0x0 SWAP2 DUP2 ADD PUSH1 0x20 ADD SWAP2 SWAP1 SWAP2 MSTORE SWAP5 SWAP4 POP POP POP POP JUMP JUMPDEST PUSH2 0xFFFF DUP2 AND DUP2 EQ PUSH2 0x17B7 JUMPI PUSH1 0x0 DUP1 REVERT JUMPDEST POP JUMP JUMPDEST PUSH1 0x0 DUP1 PUSH1 0x40 DUP4 DUP6 SUB SLT ISZERO PUSH2 0x17CD JUMPI PUSH1 0x0 DUP1 REVERT JUMPDEST DUP3 CALLDATALOAD PUSH2 0x17D8 DUP2 PUSH2 0x17A7 JUMP JUMPDEST SWAP5 PUSH1 0x20 SWAP4 SWAP1 SWAP4 ADD CALLDATALOAD SWAP4 POP POP POP JUMP JUMPDEST PUSH1 0x1 PUSH1 0x1 PUSH1 0xA0 SHL SUB DUP2 AND DUP2 EQ PUSH2 0x17B7 JUMPI PUSH1 0x0 DUP1 REVERT JUMPDEST PUSH1 0x1 PUSH1 0x1 PUSH1 0x40 SHL SUB DUP2 AND DUP2 EQ PUSH2 0x17B7 JUMPI PUSH1 0x0 DUP1 REVERT JUMPDEST PUSH1 0x0 DUP1 PUSH1 0x0 DUP1 PUSH1 0x80 DUP6 DUP8 SUB SLT ISZERO PUSH2 0x1826 JUMPI PUSH1 0x0 DUP1 REVERT JUMPDEST DUP5 CALLDATALOAD PUSH2 0x1831 DUP2 PUSH2 0x17E6 JUMP JUMPDEST SWAP4 POP PUSH1 0x20 DUP6 ADD CALLDATALOAD PUSH2 0x1841 DUP2 PUSH2 0x17FB JUMP JUMPDEST SWAP3 POP PUSH1 0x40 DUP6 ADD CALLDATALOAD PUSH2 0x1851 DUP2 PUSH2 0x17FB JUMP JUMPDEST SWAP2 POP PUSH1 0x60 DUP6 ADD CALLDATALOAD PUSH2 0x1861 DUP2 PUSH2 0x17FB JUMP JUMPDEST SWAP4 SWAP7 SWAP3 SWAP6 POP SWAP1 SWAP4 POP POP JUMP JUMPDEST PUSH1 0x0 PUSH1 0x20 DUP3 DUP5 SUB SLT ISZERO PUSH2 0x187E JUMPI PUSH1 0x0 DUP1 REVERT JUMPDEST POP CALLDATALOAD SWAP2 SWAP1 POP JUMP JUMPDEST PUSH1 0x0 PUSH1 0x20 DUP3 DUP5 SUB SLT ISZERO PUSH2 0x1897 JUMPI PUSH1 0x0 DUP1 REVERT JUMPDEST DUP2 CALLDATALOAD PUSH2 0x18A2 DUP2 PUSH2 0x17E6 JUMP JUMPDEST SWAP4 SWAP3 POP POP POP JUMP JUMPDEST PUSH1 0x0 DUP1 PUSH1 0x40 DUP4 DUP6 SUB SLT ISZERO PUSH2 0x18BC JUMPI PUSH1 0x0 DUP1 REVERT JUMPDEST DUP3 CALLDATALOAD SWAP2 POP PUSH1 0x20 DUP4 ADD CALLDATALOAD PUSH2 0x18CE DUP2 PUSH2 0x17E6 JUMP JUMPDEST DUP1 SWAP2 POP POP SWAP3 POP SWAP3 SWAP1 POP JUMP JUMPDEST PUSH1 0x0 DUP1 PUSH1 0x40 DUP4 DUP6 SUB SLT ISZERO PUSH2 0x18EC JUMPI PUSH1 0x0 DUP1 REVERT JUMPDEST DUP3 CALLDATALOAD SWAP2 POP PUSH1 0x20 DUP4 ADD CALLDATALOAD PUSH2 0x18CE DUP2 PUSH2 0x17A7 JUMP JUMPDEST PUSH1 0x0 DUP1 PUSH1 0x20 DUP4 DUP6 SUB SLT ISZERO PUSH2 0x1911 JUMPI PUSH1 0x0 DUP1 REVERT JUMPDEST DUP3 CALLDATALOAD PUSH1 0x1 PUSH1 0x1 PUSH1 0x40 SHL SUB DUP2 GT ISZERO PUSH2 0x1927 JUMPI PUSH1 0x0 DUP1 REVERT JUMPDEST DUP4 ADD PUSH1 0x1F DUP2 ADD DUP6 SGT PUSH2 0x1938 JUMPI PUSH1 0x0 DUP1 REVERT JUMPDEST DUP1 CALLDATALOAD PUSH1 0x1 PUSH1 0x1 PUSH1 0x40 SHL SUB DUP2 GT ISZERO PUSH2 0x194E JUMPI PUSH1 0x0 DUP1 REVERT JUMPDEST DUP6 PUSH1 0x20 DUP3 DUP5 ADD ADD GT ISZERO PUSH2 0x1960 JUMPI PUSH1 0x0 DUP1 REVERT JUMPDEST PUSH1 0x20 SWAP2 SWAP1 SWAP2 ADD SWAP6 SWAP1 SWAP5 POP SWAP3 POP POP POP JUMP JUMPDEST PUSH1 0x0 JUMPDEST DUP4 DUP2 LT ISZERO PUSH2 0x198B JUMPI DUP2 DUP2 ADD MLOAD DUP4 DUP3 ADD MSTORE PUSH1 0x20 ADD PUSH2 0x1973 JUMP JUMPDEST POP POP PUSH1 0x0 SWAP2 ADD MSTORE JUMP JUMPDEST PUSH1 0x0 DUP2 MLOAD DUP1 DUP5 MSTORE PUSH2 0x19AC DUP2 PUSH1 0x20 DUP7 ADD PUSH1 0x20 DUP7 ADD PUSH2 0x1970 JUMP JUMPDEST PUSH1 0x1F ADD PUSH1 0x1F NOT AND SWAP3 SWAP1 SWAP3 ADD PUSH1 0x20 ADD SWAP3 SWAP2 POP POP JUMP JUMPDEST PUSH1 0x20 DUP2 MSTORE PUSH1 0x0 PUSH2 0x18A2 PUSH1 0x20 DUP4 ADD DUP5 PUSH2 0x1994 JUMP JUMPDEST DUP1 MLOAD PUSH1 0xFF DUP2 AND DUP2 EQ PUSH2 0x19E4 JUMPI PUSH1 0x0 DUP1 REVERT JUMPDEST SWAP2 SWAP1 POP JUMP JUMPDEST DUP1 MLOAD PUSH4 0xFFFFFFFF DUP2 AND DUP2 EQ PUSH2 0x19E4 JUMPI PUSH1 0x0 DUP1 REVERT JUMPDEST DUP1 MLOAD PUSH2 0x19E4 DUP2 PUSH2 0x17A7 JUMP JUMPDEST DUP1 MLOAD PUSH2 0x19E4 DUP2 PUSH2 0x17FB JUMP JUMPDEST PUSH1 0x0 PUSH2 0x1A21 PUSH2 0x176F DUP5 PUSH2 0x1701 JUMP JUMPDEST SWAP1 POP DUP3 DUP2 MSTORE DUP4 DUP4 DUP4 ADD GT ISZERO PUSH2 0x1A35 JUMPI PUSH1 0x0 DUP1 REVERT JUMPDEST PUSH2 0x18A2 DUP4 PUSH1 0x20 DUP4 ADD DUP5 PUSH2 0x1970 JUMP JUMPDEST PUSH1 0x0 DUP3 PUSH1 0x1F DUP4 ADD SLT PUSH2 0x1A54 JUMPI PUSH1 0x0 DUP1 REVERT JUMPDEST PUSH2 0x18A2 DUP4 DUP4 MLOAD PUSH1 0x20 DUP6 ADD PUSH2 0x1A13 JUMP JUMPDEST PUSH1 0x0 DUP3 PUSH1 0x1F DUP4 ADD SLT PUSH2 0x1A74 JUMPI PUSH1 0x0 DUP1 REVERT JUMPDEST DUP2 MLOAD PUSH1 0x1 PUSH1 0x1 PUSH1 0x40 SHL SUB DUP2 GT ISZERO PUSH2 0x1A8D JUMPI PUSH2 0x1A8D PUSH2 0x164D JUMP JUMPDEST PUSH2 0x1A9C PUSH1 0x20 DUP3 PUSH1 0x5 SHL ADD PUSH2 0x16D1 JUMP JUMPDEST DUP1 DUP3 DUP3 MSTORE PUSH1 0x20 DUP3 ADD SWAP2 POP PUSH1 0x20 DUP4 PUSH1 0x7 SHL DUP7 ADD ADD SWAP3 POP DUP6 DUP4 GT ISZERO PUSH2 0x1ABE JUMPI PUSH1 0x0 DUP1 REVERT JUMPDEST PUSH1 0x20 DUP6 ADD JUMPDEST DUP4 DUP2 LT ISZERO PUSH2 0x1B23 JUMPI PUSH1 0x80 DUP2 DUP9 SUB SLT ISZERO PUSH2 0x1ADB JUMPI PUSH1 0x0 DUP1 REVERT JUMPDEST PUSH2 0x1AE3 PUSH2 0x1663 JUMP JUMPDEST DUP2 MLOAD DUP2 MSTORE PUSH1 0x20 DUP1 DUP4 ADD MLOAD SWAP1 DUP3 ADD MSTORE PUSH2 0x1AFD PUSH1 0x40 DUP4 ADD PUSH2 0x19D3 JUMP JUMPDEST PUSH1 0x40 DUP3 ADD MSTORE PUSH2 0x1B0E PUSH1 0x60 DUP4 ADD PUSH2 0x19D3 JUMP JUMPDEST PUSH1 0x60 DUP3 ADD MSTORE DUP4 MSTORE PUSH1 0x20 SWAP1 SWAP3 ADD SWAP2 PUSH1 0x80 ADD PUSH2 0x1AC3 JUMP JUMPDEST POP SWAP6 SWAP5 POP POP POP POP POP JUMP JUMPDEST PUSH1 0x0 PUSH2 0x160 DUP3 DUP5 SUB SLT ISZERO PUSH2 0x1B40 JUMPI PUSH1 0x0 DUP1 REVERT JUMPDEST PUSH2 0x1B48 PUSH2 0x168B JUMP JUMPDEST SWAP1 POP PUSH2 0x1B53 DUP3 PUSH2 0x19D3 JUMP JUMPDEST DUP2 MSTORE PUSH2 0x1B61 PUSH1 0x20 DUP4 ADD PUSH2 0x19E9 JUMP JUMPDEST PUSH1 0x20 DUP3 ADD MSTORE PUSH2 0x1B72 PUSH1 0x40 DUP4 ADD PUSH2 0x19E9 JUMP JUMPDEST PUSH1 0x40 DUP3 ADD MSTORE PUSH2 0x1B83 PUSH1 0x60 DUP4 ADD PUSH2 0x19FD JUMP JUMPDEST PUSH1 0x60 DUP3 ADD MSTORE PUSH1 0x80 DUP3 DUP2 ADD MLOAD SWAP1 DUP3 ADD MSTORE PUSH2 0x1B9E PUSH1 0xA0 DUP4 ADD PUSH2 0x1A08 JUMP JUMPDEST PUSH1 0xA0 DUP3 ADD MSTORE PUSH2 0x1BAF PUSH1 0xC0 DUP4 ADD PUSH2 0x19D3 JUMP JUMPDEST PUSH1 0xC0 DUP3 ADD MSTORE PUSH1 0xE0 DUP3 ADD MLOAD PUSH1 0x1 PUSH1 0x1 PUSH1 0x40 SHL SUB DUP2 GT ISZERO PUSH2 0x1BCD JUMPI PUSH1 0x0 DUP1 REVERT JUMPDEST PUSH2 0x1BD9 DUP5 DUP3 DUP6 ADD PUSH2 0x1A43 JUMP JUMPDEST PUSH1 0xE0 DUP4 ADD MSTORE POP PUSH2 0x1BEC PUSH2 0x100 DUP4 ADD PUSH2 0x19E9 JUMP JUMPDEST PUSH2 0x100 DUP3 ADD MSTORE PUSH2 0x120 DUP3 ADD MLOAD PUSH1 0x1 PUSH1 0x1 PUSH1 0x40 SHL SUB DUP2 GT ISZERO PUSH2 0x1C0C JUMPI PUSH1 0x0 DUP1 REVERT JUMPDEST PUSH2 0x1C18 DUP5 DUP3 DUP6 ADD PUSH2 0x1A63 JUMP JUMPDEST PUSH2 0x120 DUP4 ADD MSTORE POP PUSH2 0x140 SWAP2 DUP3 ADD MLOAD SWAP2 DUP2 ADD SWAP2 SWAP1 SWAP2 MSTORE SWAP2 SWAP1 POP JUMP JUMPDEST PUSH1 0x0 PUSH1 0x20 DUP3 DUP5 SUB SLT ISZERO PUSH2 0x1C44 JUMPI PUSH1 0x0 DUP1 REVERT JUMPDEST DUP2 MLOAD PUSH1 0x1 PUSH1 0x1 PUSH1 0x40 SHL SUB DUP2 GT ISZERO PUSH2 0x1C5A JUMPI PUSH1 0x0 DUP1 REVERT JUMPDEST PUSH2 0x1C66 DUP5 DUP3 DUP6 ADD PUSH2 0x1B2D JUMP JUMPDEST SWAP5 SWAP4 POP POP POP POP JUMP JUMPDEST PUSH1 0x0 PUSH1 0x20 DUP3 DUP5 SUB SLT ISZERO PUSH2 0x1C80 JUMPI PUSH1 0x0 DUP1 REVERT JUMPDEST DUP2 MLOAD PUSH1 0x1 PUSH1 0x1 PUSH1 0x40 SHL SUB DUP2 GT ISZERO PUSH2 0x1C96 JUMPI PUSH1 0x0 DUP1 REVERT JUMPDEST DUP3 ADD PUSH2 0x100 DUP2 DUP6 SUB SLT ISZERO PUSH2 0x1CA9 JUMPI PUSH1 0x0 DUP1 REVERT JUMPDEST PUSH2 0x1CB1 PUSH2 0x16AE JUMP JUMPDEST PUSH2 0x1CBA DUP3 PUSH2 0x19D3 JUMP JUMPDEST DUP2 MSTORE PUSH1 0x20 DUP3 DUP2 ADD MLOAD SWAP1 DUP3 ADD MSTORE PUSH1 0x40 DUP1 DUP4 ADD MLOAD SWAP1 DUP3 ADD MSTORE PUSH2 0x1CDC PUSH1 0x60 DUP4 ADD PUSH2 0x19FD JUMP JUMPDEST PUSH1 0x60 DUP3 ADD MSTORE PUSH1 0x80 DUP3 DUP2 ADD MLOAD SWAP1 DUP3 ADD MSTORE PUSH2 0x1CF7 PUSH1 0xA0 DUP4 ADD PUSH2 0x19FD JUMP JUMPDEST PUSH1 0xA0 DUP3 ADD MSTORE PUSH1 0xC0 DUP3 DUP2 ADD MLOAD SWAP1 DUP3 ADD MSTORE PUSH1 0xE0 DUP3 ADD MLOAD PUSH1 0x1 PUSH1 0x1 PUSH1 0x40 SHL SUB DUP2 GT ISZERO PUSH2 0x1D1F JUMPI PUSH1 0x0 DUP1 REVERT JUMPDEST PUSH2 0x1D2B DUP7 DUP3 DUP6 ADD PUSH2 0x1A43 JUMP JUMPDEST PUSH1 0xE0 DUP4 ADD MSTORE POP SWAP5 SWAP4 POP POP POP POP JUMP JUMPDEST PUSH1 0x0 PUSH1 0x20 DUP3 DUP5 SUB SLT ISZERO PUSH2 0x1D4B JUMPI PUSH1 0x0 DUP1 REVERT JUMPDEST DUP2 MLOAD PUSH2 0x18A2 DUP2 PUSH2 0x17E6 JUMP JUMPDEST PUSH1 0x0 PUSH1 0x20 DUP3 DUP5 SUB SLT ISZERO PUSH2 0x1D68 JUMPI PUSH1 0x0 DUP1 REVERT JUMPDEST DUP2 MLOAD PUSH1 0x1 PUSH1 0x1 PUSH1 0x40 SHL SUB DUP2 GT ISZERO PUSH2 0x1D7E JUMPI PUSH1 0x0 DUP1 REVERT JUMPDEST PUSH2 0x1C66 DUP5 DUP3 DUP6 ADD PUSH2 0x1A43 JUMP JUMPDEST PUSH1 0x20 DUP1 DUP3 MSTORE PUSH1 0x18 SWAP1 DUP3 ADD MSTORE PUSH24 0x496E76616C696420456D6974746572204164647265737321 PUSH1 0x40 SHL PUSH1 0x40 DUP3 ADD MSTORE PUSH1 0x60 ADD SWAP1 JUMP JUMPDEST PUSH4 0x4E487B71 PUSH1 0xE0 SHL PUSH1 0x0 MSTORE PUSH1 0x11 PUSH1 0x4 MSTORE PUSH1 0x24 PUSH1 0x0 REVERT JUMPDEST DUP1 DUP3 ADD DUP1 DUP3 GT ISZERO PUSH2 0x1034 JUMPI PUSH2 0x1034 PUSH2 0x1DBC JUMP JUMPDEST PUSH1 0x20 DUP1 DUP3 MSTORE DUP2 DUP2 ADD MSTORE PUSH32 0x4F776E61626C653A2063616C6C6572206973206E6F7420746865206F776E6572 PUSH1 0x40 DUP3 ADD MSTORE PUSH1 0x60 ADD SWAP1 JUMP JUMPDEST PUSH1 0x0 PUSH1 0x20 DUP3 DUP5 SUB SLT ISZERO PUSH2 0x1E2C JUMPI PUSH1 0x0 DUP1 REVERT JUMPDEST POP MLOAD SWAP2 SWAP1 POP JUMP JUMPDEST PUSH1 0x0 PUSH1 0x20 DUP3 DUP5 SUB SLT ISZERO PUSH2 0x1E45 JUMPI PUSH1 0x0 DUP1 REVERT JUMPDEST DUP2 MLOAD PUSH2 0x18A2 DUP2 PUSH2 0x17A7 JUMP JUMPDEST PUSH1 0xF8 DUP5 SWAP1 SHL PUSH1 0x1 PUSH1 0x1 PUSH1 0xF8 SHL SUB NOT AND DUP2 MSTORE PUSH1 0xF0 DUP4 SWAP1 SHL PUSH1 0x1 PUSH1 0x1 PUSH1 0xF0 SHL SUB NOT AND PUSH1 0x1 DUP3 ADD MSTORE DUP2 MLOAD PUSH1 0x0 SWAP1 PUSH2 0x1E8B DUP2 PUSH1 0x3 DUP6 ADD PUSH1 0x20 DUP8 ADD PUSH2 0x1970 JUMP JUMPDEST SWAP2 SWAP1 SWAP2 ADD PUSH1 0x3 ADD SWAP5 SWAP4 POP POP POP POP JUMP JUMPDEST PUSH1 0x0 PUSH4 0xFFFFFFFF DUP3 AND PUSH4 0xFFFFFFFF DUP2 SUB PUSH2 0x1EB6 JUMPI PUSH2 0x1EB6 PUSH2 0x1DBC JUMP JUMPDEST PUSH1 0x1 ADD SWAP3 SWAP2 POP POP JUMP JUMPDEST PUSH4 0xFFFFFFFF DUP5 AND DUP2 MSTORE PUSH1 0x60 PUSH1 0x20 DUP3 ADD MSTORE PUSH1 0x0 PUSH2 0x1EDE PUSH1 0x60 DUP4 ADD DUP6 PUSH2 0x1994 JUMP JUMPDEST SWAP1 POP PUSH1 0xFF DUP4 AND PUSH1 0x40 DUP4 ADD MSTORE SWAP5 SWAP4 POP POP POP POP JUMP JUMPDEST PUSH1 0x0 PUSH1 0x20 DUP3 DUP5 SUB SLT ISZERO PUSH2 0x1F03 JUMPI PUSH1 0x0 DUP1 REVERT JUMPDEST DUP2 MLOAD PUSH2 0x18A2 DUP2 PUSH2 0x17FB JUMP JUMPDEST PUSH1 0x0 PUSH1 0x20 DUP3 DUP5 SUB SLT ISZERO PUSH2 0x1F20 JUMPI PUSH1 0x0 DUP1 REVERT JUMPDEST PUSH2 0x18A2 DUP3 PUSH2 0x19E9 JUMP JUMPDEST PUSH1 0x20 DUP2 MSTORE DUP2 PUSH1 0x20 DUP3 ADD MSTORE DUP2 DUP4 PUSH1 0x40 DUP4 ADD CALLDATACOPY PUSH1 0x0 DUP2 DUP4 ADD PUSH1 0x40 SWAP1 DUP2 ADD SWAP2 SWAP1 SWAP2 MSTORE PUSH1 0x1F SWAP1 SWAP3 ADD PUSH1 0x1F NOT AND ADD ADD SWAP2 SWAP1 POP JUMP JUMPDEST PUSH1 0x0 DUP1 PUSH1 0x0 PUSH1 0x60 DUP5 DUP7 SUB SLT ISZERO PUSH2 0x1F6D JUMPI PUSH1 0x0 DUP1 REVERT JUMPDEST DUP4 MLOAD PUSH1 0x1 PUSH1 0x1 PUSH1 0x40 SHL SUB DUP2 GT ISZERO PUSH2 0x1F83 JUMPI PUSH1 0x0 DUP1 REVERT JUMPDEST PUSH2 0x1F8F DUP7 DUP3 DUP8 ADD PUSH2 0x1B2D JUMP JUMPDEST SWAP4 POP POP PUSH1 0x20 DUP5 ADD MLOAD DUP1 ISZERO ISZERO DUP2 EQ PUSH2 0x1FA5 JUMPI PUSH1 0x0 DUP1 REVERT JUMPDEST PUSH1 0x40 DUP6 ADD MLOAD SWAP1 SWAP3 POP PUSH1 0x1 PUSH1 0x1 PUSH1 0x40 SHL SUB DUP2 GT ISZERO PUSH2 0x1FC1 JUMPI PUSH1 0x0 DUP1 REVERT JUMPDEST DUP5 ADD PUSH1 0x1F DUP2 ADD DUP7 SGT PUSH2 0x1FD2 JUMPI PUSH1 0x0 DUP1 REVERT JUMPDEST PUSH2 0x1FE1 DUP7 DUP3 MLOAD PUSH1 0x20 DUP5 ADD PUSH2 0x1A13 JUMP JUMPDEST SWAP2 POP POP SWAP3 POP SWAP3 POP SWAP3 JUMP JUMPDEST PUSH1 0x1 PUSH1 0x1 PUSH1 0x40 SHL SUB DUP2 DUP2 AND DUP4 DUP3 AND ADD SWAP1 DUP2 GT ISZERO PUSH2 0x1034 JUMPI PUSH2 0x1034 PUSH2 0x1DBC JUMP JUMPDEST PUSH1 0x0 DUP1 PUSH1 0x0 DUP1 PUSH1 0x0 PUSH1 0xA0 DUP7 DUP9 SUB SLT ISZERO PUSH2 0x2022 JUMPI PUSH1 0x0 DUP1 REVERT JUMPDEST DUP6 MLOAD PUSH2 0x202D DUP2 PUSH2 0x17E6 JUMP JUMPDEST PUSH1 0x20 DUP8 ADD MLOAD SWAP1 SWAP6 POP PUSH2 0x203E DUP2 PUSH2 0x17E6 JUMP JUMPDEST PUSH1 0x40 DUP8 ADD MLOAD PUSH1 0x60 DUP9 ADD MLOAD SWAP2 SWAP6 POP SWAP4 POP PUSH2 0x2056 DUP2 PUSH2 0x17A7 JUMP JUMPDEST PUSH1 0x80 SWAP7 SWAP1 SWAP7 ADD MLOAD SWAP5 SWAP8 SWAP4 SWAP7 POP SWAP2 SWAP5 SWAP4 SWAP3 SWAP2 POP POP JUMP JUMPDEST DUP2 DUP2 SUB DUP2 DUP2 GT ISZERO PUSH2 0x1034 JUMPI PUSH2 0x1034 PUSH2 0x1DBC JUMP INVALID DUP12 0xE0 SMOD SWAP13 MSTORE8 AND MSIZE EQ SGT PREVRANDAO 0xCD 0x1F 0xD0 LOG4 CALLCODE DUP5 NOT BLOBHASH PUSH32 0x9722A3DAAFE3B4186F6B6457E0A2646970667358221220428664FAAEFEC800F3 0x2F 0xD1 0xD9 DUP10 GT 0xA5 TLOAD 0x2B SDIV PUSH4 0xCD2F5CE5 PC 0xD8 DUP13 0xAA TLOAD SLT PUSH9 0xD72464736F6C634300 ADDMOD SHL STOP CALLER "
        },
        "methodIdentifiers": {
          "CONSISTENCY_LEVEL()": "4fd686c8",
          "MESSAGE_TIME_OUT_SECONDS()": "e9fa3162",
          "addUsdcAddress(bytes32,address)": "ba94e2f6",
          "circleIntegration()": "dd6522aa",
          "decodePayload(bytes)": "197c6e77",
          "getMessageFee()": "4316dcd3",
          "getSourceAddress(bytes32,uint16)": "db04e81d",
          "getWormholeChainId()": "b850509a",
          "policy()": "0505c8c9",
          "programAddress()": "d0d019b0",
          "pullPolicy()": "5beede08",
          "pushPolicy(address)": "a15ad077",
          "receiveMessage(bytes)": "f953cec7",
          "redeemTransferWithPayload(bytes)": "0963d30e",
          "renouncePolicy()": "a4b23980",
          "sendMessage(address,uint64,uint64,uint64)": "4b926893",
          "tokenBridge()": "c6328a46",
          "updateReceiverAddress(bytes32)": "8781f34d",
          "updateSenderAddress(uint16,bytes32)": "354ae59d",
          "wormhole()": "84acd1bb"
        }
      }
    }
  }
}