{
  "address": "0x6dFbA3394EE4Cf592c2aD72712DE9892F0aa1433",
  "abi": [
    {
      "inputs": [
        {
          "internalType": "address",
          "name": "_wormhole",
          "type": "address"
        },
        {
          "internalType": "address",
          "name": "_tokenBridge",
          "type": "address"
        },
        {
          "internalType": "address",
          "name": "_wormholeRelayer",
          "type": "address"
        },
        {
          "internalType": "address",
          "name": "_circleIntegration",
          "type": "address"
        }
      ],
      "stateMutability": "nonpayable",
      "type": "constructor"
    },
    {
      "inputs": [
        {
          "internalType": "address",
          "name": "token",
          "type": "address"
        }
      ],
      "name": "SafeERC20FailedOperation",
      "type": "error"
    },
    {
      "anonymous": false,
      "inputs": [
        {
          "indexed": true,
          "internalType": "address",
          "name": "previousOwner",
          "type": "address"
        },
        {
          "indexed": true,
          "internalType": "address",
          "name": "newOwner",
          "type": "address"
        }
      ],
      "name": "OwnershipTransferred",
      "type": "event"
    },
    {
      "anonymous": false,
      "inputs": [
        {
          "indexed": false,
          "internalType": "address",
          "name": "sender",
          "type": "address"
        },
        {
          "indexed": false,
          "internalType": "uint16",
          "name": "sourceChain",
          "type": "uint16"
        },
        {
          "indexed": false,
          "internalType": "bytes32",
          "name": "sourceAddress",
          "type": "bytes32"
        }
      ],
      "name": "ReceiveMessage",
      "type": "event"
    },
    {
      "anonymous": false,
      "inputs": [
        {
          "indexed": true,
          "internalType": "address",
          "name": "token",
          "type": "address"
        },
        {
          "indexed": false,
          "internalType": "uint256",
          "name": "amount",
          "type": "uint256"
        }
      ],
      "name": "TransferToken",
      "type": "event"
    },
    {
      "inputs": [],
      "name": "CONSISTENCY_LEVEL",
      "outputs": [
        {
          "internalType": "uint8",
          "name": "",
          "type": "uint8"
        }
      ],
      "stateMutability": "view",
      "type": "function"
    },
    {
      "inputs": [],
      "name": "GAS_LIMIT",
      "outputs": [
        {
          "internalType": "uint256",
          "name": "",
          "type": "uint256"
        }
      ],
      "stateMutability": "view",
      "type": "function"
    },
    {
      "inputs": [],
      "name": "MESSAGE_TIME_OUT_SECONDS",
      "outputs": [
        {
          "internalType": "uint256",
          "name": "",
          "type": "uint256"
        }
      ],
      "stateMutability": "view",
      "type": "function"
    },
    {
      "inputs": [],
      "name": "circleIntegration",
      "outputs": [
        {
          "internalType": "contract ICircleIntegration",
          "name": "",
          "type": "address"
        }
      ],
      "stateMutability": "view",
      "type": "function"
    },
    {
      "inputs": [
        {
          "internalType": "bytes",
          "name": "encodedMessage",
          "type": "bytes"
        }
      ],
      "name": "decodePayload",
      "outputs": [
        {
          "components": [
            {
              "internalType": "uint8",
              "name": "payloadID",
              "type": "uint8"
            },
            {
              "internalType": "bytes32",
              "name": "recipient",
              "type": "bytes32"
            }
          ],
          "internalType": "struct WormholeBridge.TokenTransfer",
          "name": "parsedMessage",
          "type": "tuple"
        }
      ],
      "stateMutability": "pure",
      "type": "function"
    },
    {
      "inputs": [],
      "name": "getMessageFee",
      "outputs": [
        {
          "internalType": "uint256",
          "name": "",
          "type": "uint256"
        }
      ],
      "stateMutability": "view",
      "type": "function"
    },
    {
      "inputs": [
        {
          "internalType": "bytes32",
          "name": "tokenAddress",
          "type": "bytes32"
        },
        {
          "internalType": "uint16",
          "name": "sourceChain",
          "type": "uint16"
        }
      ],
      "name": "getSourceAddress",
      "outputs": [
        {
          "internalType": "address",
          "name": "",
          "type": "address"
        }
      ],
      "stateMutability": "view",
      "type": "function"
    },
    {
      "inputs": [],
      "name": "getWormholeChainId",
      "outputs": [
        {
          "internalType": "uint16",
          "name": "",
          "type": "uint16"
        }
      ],
      "stateMutability": "view",
      "type": "function"
    },
    {
      "inputs": [],
      "name": "policy",
      "outputs": [
        {
          "internalType": "address",
          "name": "",
          "type": "address"
        }
      ],
      "stateMutability": "view",
      "type": "function"
    },
    {
      "inputs": [],
      "name": "pullPolicy",
      "outputs": [],
      "stateMutability": "nonpayable",
      "type": "function"
    },
    {
      "inputs": [
        {
          "internalType": "address",
          "name": "newPolicy_",
          "type": "address"
        }
      ],
      "name": "pushPolicy",
      "outputs": [],
      "stateMutability": "nonpayable",
      "type": "function"
    },
    {
      "inputs": [
        {
          "internalType": "uint16",
          "name": "targetChain",
          "type": "uint16"
        }
      ],
      "name": "quoteEVMDeliveryCost",
      "outputs": [
        {
          "internalType": "uint256",
          "name": "cost",
          "type": "uint256"
        }
      ],
      "stateMutability": "view",
      "type": "function"
    },
    {
      "inputs": [
        {
          "internalType": "bytes",
          "name": "_whMessage",
          "type": "bytes"
        }
      ],
      "name": "receiveSolanaMessage",
      "outputs": [],
      "stateMutability": "payable",
      "type": "function"
    },
    {
      "inputs": [
        {
          "internalType": "bytes",
          "name": "payload",
          "type": "bytes"
        },
        {
          "internalType": "bytes[]",
          "name": "",
          "type": "bytes[]"
        },
        {
          "internalType": "bytes32",
          "name": "sourceAddress",
          "type": "bytes32"
        },
        {
          "internalType": "uint16",
          "name": "sourceChain",
          "type": "uint16"
        },
        {
          "internalType": "bytes32",
          "name": "",
          "type": "bytes32"
        }
      ],
      "name": "receiveWormholeMessages",
      "outputs": [],
      "stateMutability": "payable",
      "type": "function"
    },
    {
      "inputs": [
        {
          "internalType": "bytes",
          "name": "encodedVM",
          "type": "bytes"
        }
      ],
      "name": "redeemTransferWithPayload",
      "outputs": [],
      "stateMutability": "nonpayable",
      "type": "function"
    },
    {
      "inputs": [
        {
          "internalType": "uint16",
          "name": "sourceChain",
          "type": "uint16"
        },
        {
          "internalType": "bytes32",
          "name": "sourceAddress",
          "type": "bytes32"
        }
      ],
      "name": "registerSender",
      "outputs": [],
      "stateMutability": "nonpayable",
      "type": "function"
    },
    {
      "inputs": [],
      "name": "relayer",
      "outputs": [
        {
          "internalType": "contract IWormholeRelayer",
          "name": "",
          "type": "address"
        }
      ],
      "stateMutability": "view",
      "type": "function"
    },
    {
      "inputs": [],
      "name": "renouncePolicy",
      "outputs": [],
      "stateMutability": "nonpayable",
      "type": "function"
    },
    {
      "inputs": [
        {
          "internalType": "address",
          "name": "_bettingToken",
          "type": "address"
        },
        {
          "internalType": "uint256",
          "name": "_amount",
          "type": "uint256"
        },
        {
          "internalType": "uint256",
          "name": "_marketId",
          "type": "uint256"
        },
        {
          "internalType": "uint256",
          "name": "_answerId",
          "type": "uint256"
        },
        {
          "internalType": "uint256",
          "name": "_bettingKey",
          "type": "uint256"
        },
        {
          "internalType": "uint16",
          "name": "targetChain",
          "type": "uint16"
        },
        {
          "internalType": "address",
          "name": "targetAddress",
          "type": "address"
        }
      ],
      "name": "sendMessageToEvm",
      "outputs": [],
      "stateMutability": "payable",
      "type": "function"
    },
    {
      "inputs": [
        {
          "internalType": "address",
          "name": "_bettingToken",
          "type": "address"
        },
        {
          "internalType": "uint64",
          "name": "_amount",
          "type": "uint64"
        },
        {
          "internalType": "uint64",
          "name": "_marketId",
          "type": "uint64"
        },
        {
          "internalType": "uint64",
          "name": "_answerId",
          "type": "uint64"
        }
      ],
      "name": "sendMessageToSolana",
      "outputs": [
        {
          "internalType": "uint64",
          "name": "sequence",
          "type": "uint64"
        }
      ],
      "stateMutability": "payable",
      "type": "function"
    },
    {
      "inputs": [],
      "name": "tokenBridge",
      "outputs": [
        {
          "internalType": "contract ITokenBridge",
          "name": "",
          "type": "address"
        }
      ],
      "stateMutability": "view",
      "type": "function"
    },
    {
      "inputs": [
        {
          "internalType": "address",
          "name": "_recipient",
          "type": "address"
        },
        {
          "internalType": "address",
          "name": "_bettingToken",
          "type": "address"
        },
        {
          "internalType": "uint64",
          "name": "_amount",
          "type": "uint64"
        },
        {
          "internalType": "uint16",
          "name": "_targetChain",
          "type": "uint16"
        },
        {
          "internalType": "bytes32",
          "name": "_targetAddress",
          "type": "bytes32"
        }
      ],
      "name": "transferCrossChain",
      "outputs": [],
      "stateMutability": "payable",
      "type": "function"
    },
    {
      "inputs": [],
      "name": "wormhole",
      "outputs": [
        {
          "internalType": "contract IWormhole",
          "name": "",
          "type": "address"
        }
      ],
      "stateMutability": "view",
      "type": "function"
    }
  ],
  "transactionHash": "0x411fa5e5cdfb67464b696e26ef7fa4682e3de8e505189eaf98acbc9b14c424c9",
  "args": [
    "0x6b9C8671cdDC8dEab9c719bB87cBd3e782bA6a35",
    "0xC7A204bDBFe983FCD8d8E61D02b475D4073fF97e",
    "0x7B1bD7a6b4E61c2a123AC6BC2cbfC614437D0470",
    "0x2703483B1a5a7c577e8680de9Df8Be03c6f30e3c"
  ],
  "numDeployments": 1,
  "solcInputHash": "ea7886e897d37c1d922ca82bdadafa0b",
  "bytecode": "0x610100604052600180546001600160c01b0316905534801561002057600080fd5b50604051612bef380380612bef83398101604081905261003f91610123565b600080546001600160a01b0319163390811782556040519091907f8be0079c531659141344cd1fd0a4f28419497f9722a3daafe3b4186f6b6457e0908290a36001600160a01b0384166100ad5760405162461bcd60e51b81526004016100a490610177565b60405180910390fd5b6001600160a01b0380851660805283166100d95760405162461bcd60e51b81526004016100a490610177565b6001600160a01b0392831660a05290821660c0521660e052506001805463ffffffff60a01b19169055610193565b80516001600160a01b038116811461011e57600080fd5b919050565b6000806000806080858703121561013957600080fd5b61014285610107565b935061015060208601610107565b925061015e60408601610107565b915061016c60608601610107565b905092959194509250565b6020808252600290820152615a4160f01b604082015260600190565b60805160a05160c05160e051612997610258600039600081816103fd0152818161062f015281816118a9015261192e0152600081816102e401528181610e9a015281816110500152818161114c015261122d0152600081816103a9015281816104d0015281816105920152818161072c0152610d3e015260008181610318015281816104500152818161090901528181610a1001528181610b3a01528181610c5801528181610e0a015281816112b7015281816114d1015261180301526129976000f3fe6080604052600436106101105760003560e01c80630505c8c914610115578063091d2788146101455780630963d30e1461016a578063197c6e771461018c5780632ec9c883146101ca578063342dc1e5146101f5578063354b606a146102155780634316dcd3146102285780634fd686c81461023d578063529dca32146102645780635beede08146102775780635f2934d31461028c578063757f3e721461029f57806378af9972146102bf5780638406c079146102d257806384acd1bb14610306578063a15ad0771461033a578063a4b239801461035a578063b850509a1461036f578063c6328a4614610397578063db04e81d146103cb578063dd6522aa146103eb578063e9fa31621461041f575b600080fd5b34801561012157600080fd5b506000546001600160a01b03165b60405161013c9190611b7a565b60405180910390f35b34801561015157600080fd5b5061015c620f424081565b60405190815260200161013c565b34801561017657600080fd5b5061018a610185366004611cbf565b610436565b005b34801561019857600080fd5b506101ac6101a7366004611cbf565b610820565b60408051825160ff168152602092830151928101929092520161013c565b6101dd6101d8366004611d28565b610904565b6040516001600160401b03909116815260200161013c565b34801561020157600080fd5b5061018a610210366004611da4565b610c13565b61018a610223366004611dd0565b610c54565b34801561023457600080fd5b5061015c610e06565b34801561024957600080fd5b5061025260c881565b60405160ff909116815260200161013c565b61018a610272366004611e57565b610e8f565b34801561028357600080fd5b5061018a610fd0565b61018a61029a366004611f48565b611036565b3480156102ab57600080fd5b5061015c6102ba366004611fba565b611213565b61018a6102cd366004611fde565b6112b0565b3480156102de57600080fd5b5061012f7f000000000000000000000000000000000000000000000000000000000000000081565b34801561031257600080fd5b5061012f7f000000000000000000000000000000000000000000000000000000000000000081565b34801561034657600080fd5b5061018a610355366004612050565b6116ec565b34801561036657600080fd5b5061018a61179d565b34801561037b57600080fd5b506103846117ff565b60405161ffff909116815260200161013c565b3480156103a357600080fd5b5061012f7f000000000000000000000000000000000000000000000000000000000000000081565b3480156103d757600080fd5b5061012f6103e636600461206d565b611883565b3480156103f757600080fd5b5061012f7f000000000000000000000000000000000000000000000000000000000000000081565b34801561042b57600080fd5b5061015c6202a30081565b60405163a9e1189360e01b81526000906001600160a01b037f0000000000000000000000000000000000000000000000000000000000000000169063a9e11893906104859085906004016120ed565b600060405180830381865afa1580156104a2573d6000803e3d6000fd5b505050506040513d6000823e601f3d908101601f191682016040526104ca9190810190612340565b905060007f00000000000000000000000000000000000000000000000000000000000000006001600160a01b031663ea63738d8360e001516040518263ffffffff1660e01b815260040161051e91906120ed565b600060405180830381865afa15801561053b573d6000803e3d6000fd5b505050506040513d6000823e601f3d908101601f191682016040526105639190810190612374565b60608101516040808301519051630ff8f14360e11b815261ffff909216600483015260248201529091506000907f00000000000000000000000000000000000000000000000000000000000000006001600160a01b031690631ff1e28690604401602060405180830381865afa1580156105e1573d6000803e3d6000fd5b505050506040513d601f19601f82011682018060405250810190610605919061243f565b9050816060015161ffff16600114801561062657506001600160a01b038116155b156106c55760007f00000000000000000000000000000000000000000000000000000000000000006001600160a01b0316639e68b129600585604001516040518363ffffffff1660e01b815260040161068092919061245c565b602060405180830381865afa15801561069d573d6000803e3d6000fd5b505050506040513d601f19601f820116820180604052508101906106c19190612472565b9150505b6001600160a01b0381166107155760405162461bcd60e51b81526020600482015260126024820152711d1bdad95b881b9bdd08185d1d195cdd195960721b60448201526064015b60405180910390fd5b60405163c3f511c160e01b81526001600160a01b037f0000000000000000000000000000000000000000000000000000000000000000169063c3f511c1906107619087906004016120ed565b6000604051808303816000875af1158015610780573d6000803e3d6000fd5b505050506040513d6000823e601f3d908101601f191682016040526107a8919081019061248b565b506020808301516080850151606086015161ffff16600090815260039093526040909220549091146107ec5760405162461bcd60e51b815260040161070c906124bf565b60006107fb8460e00151610820565b60208101519091506108176001600160a01b03851682856119b0565b50505050505050565b604080518082019091526000808252602082015260006108408382611a14565b60ff168083526001146108895760405162461bcd60e51b81526020600482015260116024820152701a5b9d985b1a59081c185e5b1bd8591251607a1b604482015260640161070c565b610894600182612507565b90506108a08382611a74565b6020808401919091526108b39082612507565b9050825181146108fe5760405162461bcd60e51b81526020600482015260166024820152750d2dcecc2d8d2c840e0c2f2d8dec2c840d8cadccee8d60531b604482015260640161070c565b50919050565b6000807f00000000000000000000000000000000000000000000000000000000000000006001600160a01b0316631a90a2196040518163ffffffff1660e01b8152600401602060405180830381865afa158015610965573d6000803e3d6000fd5b505050506040513d601f19601f820116820180604052508101906109899190612472565b9050803410156109ab5760405162461bcd60e51b815260040161070c9061251a565b6109c96001600160a01b03871633306001600160401b038916611ad7565b3360009081526002602090815260408083206001600160a01b038a811685529083528184206001600160401b038a1690558151634d4502c960e11b815291518893889342937f00000000000000000000000000000000000000000000000000000000000000001692639a8a0592926004808401939192918290030181865afa158015610a59573d6000803e3d6000fd5b505050506040513d601f19601f82011682018060405250810190610a7d9190612565565b6040516001600160c01b031960c095861b8116602083015293851b8416602882015291841b831660308301526001600160f01b031960f09190911b1660388201526001600160601b031933606090811b8216603a8401528b901b16605a8201529188901b16607a82015260820160408051601f1981840301815282820182526001808452602084810183905282519351929550600093610b21939091879101612582565b60408051808303601f19018152919052600180549192507f00000000000000000000000000000000000000000000000000000000000000006001600160a01b03169163b19a437e918791600160a01b900463ffffffff16906014610b84836125cc565b91906101000a81548163ffffffff021916908363ffffffff1602179055508460c86040518563ffffffff1660e01b8152600401610bc3939291906125f1565b60206040518083038185885af1158015610be1573d6000803e3d6000fd5b50505050506040513d601f19601f82011682018060405250810190610c069190612623565b9998505050505050505050565b6000546001600160a01b03163314610c3d5760405162461bcd60e51b815260040161070c90612640565b61ffff909116600090815260036020526040902055565b60007f00000000000000000000000000000000000000000000000000000000000000006001600160a01b0316631a90a2196040518163ffffffff1660e01b8152600401602060405180830381865afa158015610cb4573d6000803e3d6000fd5b505050506040513d601f19601f82011682018060405250810190610cd89190612472565b905080341015610d1e5760405162461bcd60e51b8152602060048201526011602482015270496e76616c6964206d73672076616c756560781b604482015260640161070c565b610d3c6001600160a01b03861633306001600160401b038816611ad7565b7f00000000000000000000000000000000000000000000000000000000000000006001600160a01b031663c5a5ebda86868686600160149054906101000a900463ffffffff168c604051602001610d939190611b7a565b6040516020818303038152906040526040518763ffffffff1660e01b8152600401610dc396959493929190612675565b6020604051808303816000875af1158015610de2573d6000803e3d6000fd5b505050506040513d601f19601f820116820180604052508101906108179190612623565b60007f00000000000000000000000000000000000000000000000000000000000000006001600160a01b0316631a90a2196040518163ffffffff1660e01b8152600401602060405180830381865afa158015610e66573d6000803e3d6000fd5b505050506040513d601f19601f82011682018060405250810190610e8a9190612472565b905090565b336001600160a01b037f00000000000000000000000000000000000000000000000000000000000000001614610ef55760405162461bcd60e51b815260206004820152600b60248201526a2737ba103932b630bcb2b960a91b604482015260640161070c565b61ffff8216600090815260036020526040902054829084908114610f535760405162461bcd60e51b81526020600482015260156024820152742737ba103932b3b4b9ba32b932b21039b2b73232b960591b604482015260640161070c565b600087806020019051810190610f6991906126d1565b5050604080516001600160a01b038316815261ffff8c1660208201529081018c90529095507fed57b41026cbcb13384f314fbbf57a49654f4ac69be150d2cbfcd49d10f87fc394506060019250610fbe915050565b60405180910390a15050505050505050565b6001546001600160a01b03163314610fe757600080fd5b600154600080546040516001600160a01b03938416939091169160008051602061294283398151915291a3600154600080546001600160a01b0319166001600160a01b03909216919091179055565b60405163c23ee3c360e01b81526000906001600160a01b037f0000000000000000000000000000000000000000000000000000000000000000169063c23ee3c39061108c9086908590620f424090600401612725565b6040805180830381865afa1580156110a8573d6000803e3d6000fd5b505050506040513d601f19601f820116820180604052508101906110cc9190612741565b509050803410156110ef5760405162461bcd60e51b815260040161070c9061251a565b604080516020810188905290810186905260608181018690524260808301526001600160601b031933821b811660a0840152908a901b1660c082015260e081018890526000906101000160405160208183030381529060405290507f00000000000000000000000000000000000000000000000000000000000000006001600160a01b0316638fecdd02838686853360405160200161118f929190612765565b6040516020818303038152906040526000620f42406040518763ffffffff1660e01b81526004016111c495949392919061278f565b60206040518083038185885af11580156111e2573d6000803e3d6000fd5b50505050506040513d601f19601f820116820180604052508101906112079190612623565b50505050505050505050565b60405163c23ee3c360e01b81526000906001600160a01b037f0000000000000000000000000000000000000000000000000000000000000000169063c23ee3c3906112699085908590620f424090600401612725565b6040805180830381865afa158015611285573d6000803e3d6000fd5b505050506040513d601f19601f820116820180604052508101906112a99190612741565b5092915050565b60008060007f00000000000000000000000000000000000000000000000000000000000000006001600160a01b031663c0fd8bde86866040518363ffffffff1660e01b81526004016113039291906127d1565b600060405180830381865afa158015611320573d6000803e3d6000fd5b505050506040513d6000823e601f3d908101601f191682016040526113489190810190612800565b92509250925081819061136e5760405162461bcd60e51b815260040161070c91906120ed565b506080830151606084015161ffff16600090815260036020526040902054146113a95760405162461bcd60e51b815260040161070c906124bf565b60015460a08401516001600160401b03600160c01b90920482169116101561140d5760405162461bcd60e51b815260206004820152601760248201527624b73b30b634b21029b2b8bab2b731b290373ab6b132b960491b604482015260640161070c565b60a083015161141d906001612893565b600160186101000a8154816001600160401b0302191690836001600160401b03160217905550426202a300846020015163ffffffff1661145d9190612507565b10156114a55760405162461bcd60e51b815260206004820152601760248201527613595cdcd859d9481b9bc81b1bdb99d95c881d985b1a59604a1b604482015260640161070c565b60008060008060008760e001518060200190518101906114c591906128b2565b945094509450945094507f00000000000000000000000000000000000000000000000000000000000000006001600160a01b0316639a8a05926040518163ffffffff1660e01b8152600401602060405180830381865afa15801561152d573d6000803e3d6000fd5b505050506040513d601f19601f820116820180604052508101906115519190612565565b61ffff168261ffff16146115985760405162461bcd60e51b815260206004820152600e60248201526d15dc9bdb99c818da185a5b88125960921b604482015260640161070c565b6001600160601b03193060601b1681146115e45760405162461bcd60e51b815260206004820152600d60248201526c57726f6e67206164647265737360981b604482015260640161070c565b6001600160a01b038086166000908152600260209081526040808320938816835292905220548381101561164b5760405162461bcd60e51b815260206004820152600e60248201526d125b9d985b1a5908185b5bdd5b9d60921b604482015260640161070c565b6001600160a01b03808716600090815260026020908152604080832093891683529290529081208054869290611682908490612913565b9091555061169c90506001600160a01b03861687866119b0565b846001600160a01b03167f9dd3045b6df532ed81beb2a333cec6249dafd3c2fc54c80c50155cb0e1a0ba1e856040516116d791815260200190565b60405180910390a25050505050505050505050565b6000546001600160a01b031633146117165760405162461bcd60e51b815260040161070c90612640565b6001600160a01b03811661177b5760405162461bcd60e51b815260206004820152602660248201527f4f776e61626c653a206e6577206f776e657220697320746865207a65726f206160448201526564647265737360d01b606482015260840161070c565b600180546001600160a01b0319166001600160a01b0392909216919091179055565b6000546001600160a01b031633146117c75760405162461bcd60e51b815260040161070c90612640565b600080546040516001600160a01b0390911690600080516020612942833981519152908390a3600080546001600160a01b0319169055565b60007f00000000000000000000000000000000000000000000000000000000000000006001600160a01b0316639a8a05926040518163ffffffff1660e01b8152600401602060405180830381865afa15801561185f573d6000803e3d6000fd5b505050506040513d601f19601f82011682018060405250810190610e8a9190612565565b60405163134f89bd60e01b815261ffff8216600482015260009081906001600160a01b037f0000000000000000000000000000000000000000000000000000000000000000169063134f89bd90602401602060405180830381865afa1580156118f0573d6000803e3d6000fd5b505050506040513d601f19601f820116820180604052508101906119149190612926565b604051639e68b12960e01b81529091506001600160a01b037f00000000000000000000000000000000000000000000000000000000000000001690639e68b12990611965908490889060040161245c565b602060405180830381865afa158015611982573d6000803e3d6000fd5b505050506040513d601f19601f820116820180604052508101906119a69190612472565b9150505b92915050565b6040516001600160a01b03838116602483015260448201839052611a0f91859182169063a9059cbb906064015b604051602081830303815290604052915060e01b6020820180516001600160e01b038381831617835250505050611b16565b505050565b600081835111611a5c5760405162461bcd60e51b8152602060048201526013602482015272746f55696e74385f6f75744f66426f756e647360681b604482015260640161070c565b6000611a69600184612507565b909301519392505050565b600080611a82602084612507565b90508084511015611acd5760405162461bcd60e51b8152602060048201526015602482015274746f427974657333325f6f75744f66426f756e647360581b604482015260640161070c565b9092015192915050565b6040516001600160a01b038481166024830152838116604483015260648201839052611b109186918216906323b872dd906084016119dd565b50505050565b600080602060008451602086016000885af180611b39576040513d6000823e3d81fd5b50506000513d91508115611b51578060011415611b5e565b6001600160a01b0384163b155b15611b105783604051635274afe760e01b815260040161070c91905b6001600160a01b0391909116815260200190565b634e487b7160e01b600052604160045260246000fd5b604051608081016001600160401b0381118282101715611bc657611bc6611b8e565b60405290565b60405161016081016001600160401b0381118282101715611bc657611bc6611b8e565b60405161010081016001600160401b0381118282101715611bc657611bc6611b8e565b604051601f8201601f191681016001600160401b0381118282101715611c3a57611c3a611b8e565b604052919050565b60006001600160401b03821115611c5b57611c5b611b8e565b50601f01601f191660200190565b600082601f830112611c7a57600080fd5b8135611c8d611c8882611c42565b611c12565b818152846020838601011115611ca257600080fd5b816020850160208301376000918101602001919091529392505050565b600060208284031215611cd157600080fd5b81356001600160401b03811115611ce757600080fd5b611cf384828501611c69565b949350505050565b6001600160a01b0381168114611d1057600080fd5b50565b6001600160401b0381168114611d1057600080fd5b60008060008060808587031215611d3e57600080fd5b8435611d4981611cfb565b93506020850135611d5981611d13565b92506040850135611d6981611d13565b91506060850135611d7981611d13565b939692955090935050565b61ffff81168114611d1057600080fd5b8035611d9f81611d84565b919050565b60008060408385031215611db757600080fd5b8235611dc281611d84565b946020939093013593505050565b600080600080600060a08688031215611de857600080fd5b8535611df381611cfb565b94506020860135611e0381611cfb565b93506040860135611e1381611d13565b92506060860135611e2381611d84565b949793965091946080013592915050565b60006001600160401b03821115611e4d57611e4d611b8e565b5060051b60200190565b600080600080600060a08688031215611e6f57600080fd5b85356001600160401b03811115611e8557600080fd5b611e9188828901611c69565b95505060208601356001600160401b03811115611ead57600080fd5b8601601f81018813611ebe57600080fd5b8035611ecc611c8882611e34565b8082825260208201915060208360051b85010192508a831115611eee57600080fd5b602084015b83811015611f2f5780356001600160401b03811115611f1157600080fd5b611f208d602083890101611c69565b84525060209283019201611ef3565b50965050505060408601359250611e2360608701611d94565b600080600080600080600060e0888a031215611f6357600080fd5b8735611f6e81611cfb565b96506020880135955060408801359450606088013593506080880135925060a0880135611f9a81611d84565b915060c0880135611faa81611cfb565b8091505092959891949750929550565b600060208284031215611fcc57600080fd5b8135611fd781611d84565b9392505050565b60008060208385031215611ff157600080fd5b82356001600160401b0381111561200757600080fd5b8301601f8101851361201857600080fd5b80356001600160401b0381111561202e57600080fd5b85602082840101111561204057600080fd5b6020919091019590945092505050565b60006020828403121561206257600080fd5b8135611fd781611cfb565b6000806040838503121561208057600080fd5b82359150602083013561209281611d84565b809150509250929050565b60005b838110156120b85781810151838201526020016120a0565b50506000910152565b600081518084526120d981602086016020860161209d565b601f01601f19169290920160200192915050565b602081526000611fd760208301846120c1565b805160ff81168114611d9f57600080fd5b805163ffffffff81168114611d9f57600080fd5b8051611d9f81611d84565b8051611d9f81611d13565b6000612149611c8884611c42565b905082815283838301111561215d57600080fd5b611fd783602083018461209d565b600082601f83011261217c57600080fd5b611fd78383516020850161213b565b600082601f83011261219c57600080fd5b81516121aa611c8882611e34565b8082825260208201915060208360071b8601019250858311156121cc57600080fd5b602085015b8381101561223157608081880312156121e957600080fd5b6121f1611ba4565b815181526020808301519082015261220b60408301612100565b604082015261221c60608301612100565b606082015283526020909201916080016121d1565b5095945050505050565b6000610160828403121561224e57600080fd5b612256611bcc565b905061226182612100565b815261226f60208301612111565b602082015261228060408301612111565b604082015261229160608301612125565b6060820152608082810151908201526122ac60a08301612130565b60a08201526122bd60c08301612100565b60c082015260e08201516001600160401b038111156122db57600080fd5b6122e78482850161216b565b60e0830152506122fa6101008301612111565b6101008201526101208201516001600160401b0381111561231a57600080fd5b6123268482850161218b565b610120830152506101409182015191810191909152919050565b60006020828403121561235257600080fd5b81516001600160401b0381111561236857600080fd5b611cf38482850161223b565b60006020828403121561238657600080fd5b81516001600160401b0381111561239c57600080fd5b820161010081850312156123af57600080fd5b6123b7611bef565b6123c082612100565b815260208281015190820152604080830151908201526123e260608301612125565b6060820152608082810151908201526123fd60a08301612125565b60a082015260c0828101519082015260e08201516001600160401b0381111561242557600080fd5b6124318682850161216b565b60e083015250949350505050565b60006020828403121561245157600080fd5b8151611fd781611cfb565b63ffffffff929092168252602082015260400190565b60006020828403121561248457600080fd5b5051919050565b60006020828403121561249d57600080fd5b81516001600160401b038111156124b357600080fd5b611cf38482850161216b565b602080825260189082015277496e76616c696420456d697474657220416464726573732160401b604082015260600190565b634e487b7160e01b600052601160045260246000fd5b808201808211156119aa576119aa6124f1565b6020808252602b908201527f496e73756666696369656e742066756e647320666f722063726f73732d63686160408201526a696e2064656c697665727960a81b606082015260800190565b60006020828403121561257757600080fd5b8151611fd781611d84565b60f884901b6001600160f81b031916815260f083901b6001600160f01b031916600182015281516000906125bd81600385016020870161209d565b91909101600301949350505050565b600063ffffffff821663ffffffff81036125e8576125e86124f1565b60010192915050565b63ffffffff8416815260606020820152600061261060608301856120c1565b905060ff83166040830152949350505050565b60006020828403121561263557600080fd5b8151611fd781611d13565b6020808252818101527f4f776e61626c653a2063616c6c6572206973206e6f7420746865206f776e6572604082015260600190565b6001600160a01b03871681526001600160401b038616602082015261ffff851660408201526060810184905263ffffffff8316608082015260c060a082018190526000906126c5908301846120c1565b98975050505050505050565b600080600080600080600060e0888a0312156126ec57600080fd5b5050855160208701516040880151606089015160808a015160a08b015160c0909b0151949c939b50919990985090965094509092509050565b61ffff9390931683526020830191909152604082015260600190565b6000806040838503121561275457600080fd5b505080516020909101519092909150565b60408152600061277860408301856120c1565b905060018060a01b03831660208301529392505050565b61ffff861681526001600160a01b038516602082015260a0604082018190526000906127bd908301866120c1565b606083019490945250608001529392505050565b60208152816020820152818360408301376000818301604090810191909152601f909201601f19160101919050565b60008060006060848603121561281557600080fd5b83516001600160401b0381111561282b57600080fd5b6128378682870161223b565b9350506020840151801515811461284d57600080fd5b60408501519092506001600160401b0381111561286957600080fd5b8401601f8101861361287a57600080fd5b6128898682516020840161213b565b9150509250925092565b6001600160401b0381811683821601908111156119aa576119aa6124f1565b600080600080600060a086880312156128ca57600080fd5b85516128d581611cfb565b60208701519095506128e681611cfb565b6040870151606088015191955093506128fe81611d84565b60809690960151949793965091949392915050565b818103818111156119aa576119aa6124f1565b60006020828403121561293857600080fd5b611fd78261211156fe8be0079c531659141344cd1fd0a4f28419497f9722a3daafe3b4186f6b6457e0a26469706673582212203fbcce1543c61df898117a462f85225dc3196cf40eff273ca2df96058fdb0ed364736f6c634300081b0033",
  "devdoc": {
    "errors": {
      "SafeERC20FailedOperation(address)": [
        {
          "details": "An operation with an ERC-20 token failed."
        }
      ]
    },
    "kind": "dev",
    "methods": {},
    "version": 1
  },
  "userdoc": {
    "kind": "user",
    "methods": {
      "MESSAGE_TIME_OUT_SECONDS()": {
        "notice": "Message timeout in seconds: Time out needs to account for: - Finality time on source chain - Time for Wormhole validators to sign and make VAA available to relayers - Time to relay VAA to the target chain - Congestion on target chain leading to delayed inclusion of transaction in target chain Note that there is no way to alter this hard coded value. Including such a feature would require some governance structure and some minumum and maximum values."
      }
    },
    "version": 1
  },
  "storageLayout": {
    "storage": [
      {
        "astId": 878,
        "contract": "contracts/WormholeBridge.sol:WormholeBridge",
        "label": "_policy",
        "offset": 0,
        "slot": "0",
        "type": "t_address"
      },
      {
        "astId": 880,
        "contract": "contracts/WormholeBridge.sol:WormholeBridge",
        "label": "_newPolicy",
        "offset": 0,
        "slot": "1",
        "type": "t_address"
      },
      {
        "astId": 1015,
        "contract": "contracts/WormholeBridge.sol:WormholeBridge",
        "label": "NONCE",
        "offset": 20,
        "slot": "1",
        "type": "t_uint32"
      },
      {
        "astId": 1024,
        "contract": "contracts/WormholeBridge.sol:WormholeBridge",
        "label": "minSequence",
        "offset": 24,
        "slot": "1",
        "type": "t_uint64"
      },
      {
        "astId": 1046,
        "contract": "contracts/WormholeBridge.sol:WormholeBridge",
        "label": "locked",
        "offset": 0,
        "slot": "2",
        "type": "t_mapping(t_address,t_mapping(t_address,t_uint256))"
      },
      {
        "astId": 1050,
        "contract": "contracts/WormholeBridge.sol:WormholeBridge",
        "label": "registeredSenders",
        "offset": 0,
        "slot": "3",
        "type": "t_mapping(t_uint16,t_bytes32)"
      }
    ],
    "types": {
      "t_address": {
        "encoding": "inplace",
        "label": "address",
        "numberOfBytes": "20"
      },
      "t_bytes32": {
        "encoding": "inplace",
        "label": "bytes32",
        "numberOfBytes": "32"
      },
      "t_mapping(t_address,t_mapping(t_address,t_uint256))": {
        "encoding": "mapping",
        "key": "t_address",
        "label": "mapping(address => mapping(address => uint256))",
        "numberOfBytes": "32",
        "value": "t_mapping(t_address,t_uint256)"
      },
      "t_mapping(t_address,t_uint256)": {
        "encoding": "mapping",
        "key": "t_address",
        "label": "mapping(address => uint256)",
        "numberOfBytes": "32",
        "value": "t_uint256"
      },
      "t_mapping(t_uint16,t_bytes32)": {
        "encoding": "mapping",
        "key": "t_uint16",
        "label": "mapping(uint16 => bytes32)",
        "numberOfBytes": "32",
        "value": "t_bytes32"
      },
      "t_uint16": {
        "encoding": "inplace",
        "label": "uint16",
        "numberOfBytes": "2"
      },
      "t_uint256": {
        "encoding": "inplace",
        "label": "uint256",
        "numberOfBytes": "32"
      },
      "t_uint32": {
        "encoding": "inplace",
        "label": "uint32",
        "numberOfBytes": "4"
      },
      "t_uint64": {
        "encoding": "inplace",
        "label": "uint64",
        "numberOfBytes": "8"
      }
    }
  }
}